:020000040800F2
:10000000104E0020C101000845150008211200080B
:10001000411500081D0300089118000800000000A9
:10002000000000000000000000000000A116000811
:10003000210300080000000051150008C516000843
:10004000DB010008DB010008DB010008DB01000820
:10005000DB010008DB010008DB010008DB01000810
:10006000DB010008250300082D030008DB01000860
:10007000DB010008DB010008DB010008DB010008F0
:10008000DB010008DB010008DB010008DB010008E0
:10009000DB010008DB010008DB0100083503000874
:1000A000DB010008DB010008DB010008DB010008C0
:1000B000DB010008DB010008DB010008DB010008B0
:1000C000DB010008DB010008DB010008DB010008A0
:1000D000DB010008DB010008DB010008DB01000890
:1000E000DB010008DB010008DB010008DB01000880
:1000F000DB010008DB010008DB010008DB01000870
:10010000DB010008DB010008DB010008DB0100085F
:10011000DB010008DB010008DB010008DB0100084F
:10012000DB010008DB010008DB010008DB0100083F
:10013000DB010008DB010008DB010008DB0100082F
:10014000DB010008DB010008DB010008DB0100081F
:10015000DB010008DB010008DB010008DB0100080F
:10016000DB010008DB010008DB010008DB010008FF
:10017000DB010008DB010008DB01000800000000D3
:10018000DB010008DB010008DB010008DB010008DF
:10019000DB010008DB010008DB010008DB010008CF
:1001A000DB010008DB010008DB010008DFF80CD0F0
:1001B00000F0A2F80048004711190008104E002076
:1001C0000648804706480047FEE7FEE7FEE7FEE7F1
:1001D000FEE7FEE7FEE7FEE7FEE7FEE78D17000815
:1001E000AD0100082DE9F05F0546002092469B46D0
:1001F00088460646814640241BE02846414647463D
:10020000224600F069F853465A46C01A914110D36D
:1002100011461846224600F050F82D1A67EB0108E7
:100220004F4622460120002100F047F817EB000955
:100230004E41201EA4F10104DFDC484631462A4627
:100240004346BDE8F09F40EA01039B0703D009E065
:1002500008C9121F08C0042AFAD203E011F8013BB2
:1002600000F8013B521EF9D27047D2B201E000F80B
:10027000012B491EFBD270470022F6E710B513464A
:100280000A4604461946FFF7F0FF204610BD30B578
:100290000B46014600202022012409E021FA02F544
:1002A0009D4205D303FA02F5491B04FA02F52844DE
:1002B000151EA2F10102F1DC30BD202A04DB203A38
:1002C00000FA02F1002070479140C2F1200320FAA9
:1002D00003F3194390407047202A04DB203A21FAA7
:1002E00002F00021704721FA02F3D040C2F120024F
:1002F0009140084319467047064C074D06E0E068F8
:1003000040F0010394E8070098471034AC42F6D35C
:10031000FFF750FF483F0008683F0008FEE7000075
:1003200070470000082000F0C3B80000102000F063
:10033000BFB8000080B5202000F0BAF84020BDE82A
:10034000804000F0B5B80000EFF3108072B600BF37
:10035000FEE7000080B582B008384FEAF0000728B9
:1003600026D8DFE800F0051725372525254500BFED
:1003700041F20000C4F20200082100F079F90128DE
:100380003ED100208DF8070043F62C70C0F6000027
:100390003CE000BF41F20000C4F20200102100F076
:1003A00067F901282CD101208DF8070033A02DE03A
:1003B00040F21800C2F20000002100688DF807101A
:1003C0000DF107010022002302F024FF32A003F008
:1003D0008FFD15E041F20000C4F20200202100F080
:1003E00047F968B902208DF807001BA00EE000BF96
:1003F00041F20000C4F20200402100F039F908B1D6
:1004000002B080BD03208DF8070008A003F070FD46
:1004100040F21800C2F2000000680DF1070100224E
:10042000002302F0F7FE02B080BD00BF6469737064
:100430006C6179206D6F64653A726573657276657B
:10044000642C206261636B20746F20646566617543
:100450006C74200D00000000646973706C61792079
:100460006D6F64653A73797374656D20737461722E
:100470007475702074696D6572200D006469737005
:100480006C6179206D6F64653A73747564656E7420
:10049000206964200D000000756E6B6E6F776E2012
:1004A0006972712068617070656E64200D000000D3
:1004B00043F61441C4F201010A68024214BF086005
:1004C0007047FFF747BF00002DE9F04F82B000F101
:1004D0003E4242F2004502F1FF77C4F202050A22D1
:1004E00043F6004E4FEAB726A84208BF0922C4F2DD
:1004F000010E092E38BF4FEAB7220125002600273A
:100500004FF00008009208E008F101080437B8F144
:10051000100F06F1020600F0A7800C6805FA08F932
:1005200014EA090FF0D0D1F804B003220BF0030C49
:10053000ACF10104B240012C6FEA020A10D88268C3
:10054000CC6802EA0A02B440224382604268CBF3DC
:10055000001422EA090204FA08F42243426005E08A
:10056000BCF1030F02D14FF0030C20E0C2688C688D
:1005700002EA0A02B4402243BCF1020FC26016D163
:100580006FF0030202EA58020244D2F820C007F0DA
:100590001C050F230C69AB402CEA030304FA05F594
:1005A0002B431362D1F804B001250BF0030C026851
:1005B0000CFA06F302EA0A021A431BF4403F0260F7
:1005C000A2D0002243F644030192C4F202031A6847
:1005D0004FF6084C42F480421A601A68CFF6FF7C4E
:1005E00002F480420192019A28F00302724452F808
:1005F0000C3007F00C050F24AC40A343009C04FA18
:1006000005F52B4342F80C30DEF808204B6842EA2F
:10061000090543F60C4CDC0258BF22EA0905CEF866
:100620000850C4F2010CDCF800209C0242EA0905E3
:1006300058BF22EA0905CCF80050DEF804209C03DC
:1006400042EA090558BF22EA0905CEF80450DEF84F
:100650000020DB0342EA090558BF22EA0905CEF86B
:100660000050012550E700BF02B0BDE8F08F000048
:100670000069084018BF012070470000426902EA83
:100680000103914341EA034181617047002A08BF99
:10069000090481617047000044F21030C2F200008A
:1006A0000068704740F2040044F21031C2F20000CA
:1006B000C2F2000100780A68104408607047000028
:1006C00080B543F60040C4F20200016841F40071B5
:1006D0000160016841F480610160016841F480714A
:1006E0000160032000F08EF80F2000F005F800F004
:1006F00027F8002080BD000070B540F20406C2F269
:10070000000640F20C013278C2F200014FF47A7315
:100710000968B3FBF2F20446B1FBF2F1084600F0BF
:1007200003FD0F2C4FF0010508D838B94FF0FF300A
:1007300021460022002500F039F87460284670BD7B
:1007400082B0002043F640010190C4F202014A68E1
:1007500042F480424A604A6802F480420192019A5F
:1007600000900868002240F08050086008680F215F
:1007700000F08050009000986FF0010002B000F08F
:1007800015B80000002848BF7047C1B200F01F0034
:10079000012202FA00F04EF20012CEF2000242EA0A
:1007A000D10121F0030108607047000010B54EF63A
:1007B0000C5CCEF2000CDCF80030C3F3022E8EF09D
:1007C0000704042C28BF0424BEF103034FF0FF3EAE
:1007D0000EFA04F438BF0023A14399400EFA03F344
:1007E0009A43114300F00F0200F160430901043AFB
:1007F00003F564436244002848BF02F10C031970FA
:1008000010BD00004EF60C51CEF200010A684FF602
:10081000FF031A4060F30A2242F0806040F0FD704E
:10082000086070472DE9F041002800F08B8043F606
:100830000808C4F202080446D8F8F8030D4600F090
:100840000F00884207D288F8F853D8F8F80300F070
:100850000F00A84276D12068810717D5410705D53A
:10086000D8F8001041F4E051C8F80010010705D590
:10087000D8F8001041F46041C8F80010D8F8001012
:10088000A26821F0F0011143C8F80010C0073FD161
:10089000D8F8F80300F00F00A84207D988F8F853F9
:1008A000D8F8F80300F00F00A8424BD120684107A8
:1008B00007D5D8F80010E26821F4E0511143C8F8D8
:1008C0000010000708D5D8F80000216920F4604026
:1008D00040EAC100C8F8000000F07CF8D8F8001029
:1008E00043F61472C1F30311C0F60002515C40F2EA
:1008F0000C0220FA01F140F20800C2F20000006888
:10090000C2F200021160FFF7F7FE0020BDE8F0819F
:100910006068811E022907D258F8081C89015CBF53
:100920000120BDE8F08111E0012807D158F8081C2A
:1009300089035CBF0120BDE8F08107E058F8081C7E
:10094000890703D40120BDE8F08100BFD8F800106A
:1009500021F003010843C8F80000FFF79DFE06469A
:1009600041F28837D8F80000616800F00C00B0EB65
:10097000810F8DD0FFF790FE801BB842F2D9032083
:10098000BDE8F08140F20C0043F60801C2F200001D
:10099000C4F202010068096843F62472C1F382219F
:1009A000C0F60002515CC8407047000040F20C00E5
:1009B00043F60801C2F20000C4F2020100680968AF
:1009C00043F62472C1F34231C0F60002515CC840C4
:1009D0007047000010B543F60404C4F202046068D6
:1009E00000F00C0142F200400829C0F2F40007D0E8
:1009F000042918BF10BD41F20020C0F27A0010BDDA
:100A0000216801F03F02216823684902C3F388117D
:100A100006D4A1FB00010023FFF7E4FB07E000BFC1
:100A200041F20020C0F27A004843B0FBF2F02168A6
:100A30000222C1F3014102EB4101B0FBF1F010BD14
:100A40002DE9F04182B0002868D00446007843F6D2
:100A50000006C007C4F202060BD0B06800F00C001C
:100A6000042840F09F803068800302D56068002829
:100A700054D0207880071AD5B06810F00C0F09D038
:100A8000B06800F00C00082840F0A68070684002B2
:100A900000F1A2803068800702D5E06801283DD1CE
:100AA0003068216920F0F80040EAC1003060207809
:100AB000000737D4207840074CD4A56955B3B068F7
:100AC00000F00C00082840F0BB80012D26D0706893
:100AD000E16900F480028A4220D1216A00F03F02DD
:100AE0008A421BD147F6C071626A0140B1EB821F96
:100AF00014D1A16A4FF6FF73C903994300F4403241
:100B0000A1F580318A4209D1E16A00F07060B0EB52
:100B1000016F03D1002002B0BDE8F081012002B0D6
:100B2000BDE8F0816069002840F20000C4F247206F
:100B300076D00121C0F8801EFFF7AEFD054600BF4C
:100B4000706F8007B6D4FFF7A7FD401B0228F7D9C6
:100B5000DDE000BF306C10F080580AD10020019019
:100B6000306C40F080503064306C00F08050019068
:100B7000019847F20007C4F200073868C00541D465
:100B8000386840F480703860FFF786FD054600BF86
:100B90003868C00536D4FFF77FFD401B0228F7D91F
:100BA000B5E000BFB06800F00C00082803D1706801
:100BB00040023FF558AF6068B0F5803F07D0B0F510
:100BC000A02F40F08D80306840F480203060306885
:100BD00040F4803030608DE0E068002852D0002082
:100BE000C4F2472001210160FFF756FD054600BF12
:100BF000306880073FF554AFFFF74EFD401B0228D9
:100C0000F6D984E0A068012805D005284ED1306FC0
:100C100040F004003067306F40F0010030674FE073
:100C20000021C0F8801EFFF737FD0546706F800772
:100C30007FF540AFFFF730FD401B0228F6D966E094
:100C40000027C4F2472700203866FFF725FD022D54
:100C500005460BD1306880015ED5FFF71DFD401BB6
:100C600002284FF00300F5D955E700BF3068800136
:100C70007FF550AFFFF710FD401B02284FF0030037
:100C8000F4D948E70020C4F2472000210160FFF7B3
:100C900003FD0546306880077FF509AFFFF7FCFCD0
:100CA000401B02284FF00300F4D934E7316F0028CD
:100CB00021F001013167316F21F0040131674DD01E
:100CC000FFF7EAFC054641F2883700BF306F800726
:100CD00056D4FFF7E1FC401BB842F7D917E000BF3C
:100CE0003168002821F480313160316821F480219D
:100CF00031604FD0FFF7D0FC054600BF306880035D
:100D00003FF5B7AEFFF7C8FC401B6428F6D90320B7
:100D100002B0BDE8F08100BF04F11C052FCD0843EF
:100D200040EA8210D9034FF6FF729143A1F580315A
:100D300040EA05600843706001203866FFF7ACFCAC
:100D4000044600BF306880013FF5E4AEFFF7A4FC25
:100D5000001B02284FF00300F4D9DCE6FFF79CFCEF
:100D6000054641F2883700BF306F800708D5FFF78E
:100D700093FC401BB8424FF00300F5D9CBE600BF0F
:100D8000B8F1000F7FF499AE306C20F080503064E1
:100D900093E600BFFFF780FC054600BF3068800384
:100DA0007FF567AEFFF778FC401B64284FF0030027
:100DB000F4D9B0E670B538B10446406A30B10020CD
:100DC000206104F1140007E0012070BD6068B0F5F7
:100DD000827F03D004F11C00002101600026A6627E
:100DE00094F8510020B9204684F8506000F03CF897
:100DF000022084F8510094E80F0001F48271056824
:100E000002F4044225F040050560114403F4006239
:100E10002369114403F002026369114403F00102E3
:100E2000A369E569114403F40072114405F0380226
:100E3000256A114405F08002A56A114305F40052A9
:100E400011430160626A042101EA134102F01002B9
:100E500011444160C16921F40061C16101206665EE
:100E600084F85100304670BD80B586B0016843F209
:100E70000000C4F20100814202D006B080BD00BF74
:100E8000002143F630020191C4F20202536900F5D9
:100E9000504043F480535361536903F480530193EA
:100EA000019B0191136843F001031360126802F083
:100EB00001020192019AE02201920222CDE902216F
:100EC000032104910521059101A9FFF7FDFA06B060
:100ED00080BD00002DE9F04383B0044690F8500037
:100EE000012803D1022003B0BDE8F0834FF00109CF
:100EF0001D4616460F4684F85090FFF7CDFB94F838
:100F00005110012944D18046002F4FF0010018BF35
:100F1000002E00F0D6800320002184F85100616586
:100F20002763A686E686A163A187E187A06821647E
:100F3000B0F5004F2068616407D1016821F04001DD
:100F40000160016841F4804101600168490603D4F1
:100F5000016841F0400101606168731EE268B1FA06
:100F600081F1B3FA83F349095B09B2F5006F41EAF5
:100F700003013DD131B137F8021BC1602763E08E18
:100F80000138E086E08E00286CD0681C0DD11EE090
:100F9000022096E0216B31F8022BC2602163E08EC3
:100FA0000138E086E08E00285CD0206881688907DF
:100FB000F0D4FFF771FBA0EB0800A842F2D30320A6
:100FC0007FE000BFFFF768FBE08E00284AD0206872
:100FD00081688907F6D5216B31F8022BC260216345
:100FE000E08E0138E086E08E0028F0D13AE000BFC4
:100FF00039B139780173206B01302063E08E0138FC
:10100000E086E08E70B3681C0BD11BE0216B097881
:101010000173206B01302063E08E0138E086E08EA2
:1010200000B3206881688907F0D4FFF735FBA0EB97
:101030000800A842F3D3032043E000BFFFF72CFBD6
:10104000E08E78B1206881688907F7D5216B09782F
:101050000173206B01302063E08E0138E086E08E62
:101060000028EFD140F20C00C2F20000006849F6FF
:101070008171C1F25E61A0FB0101480D4FF47A71EC
:10108000484302906068B0F5827F23D120468021DA
:101090002A46434600F08EFA28B1606D40F02000E9
:1010A000606520206065A06838B900200190206844
:1010B000C1680191806801900198606D002818BF97
:1010C0000120002184F8519084F8501003B0BDE84D
:1010D000F08300BF02980028E5D002980138029002
:1010E000206880680006DED502980028DBD00298D0
:1010F00001380290206880680006D4D50298002844
:10110000D1D0029801380290206880680006CAD5C4
:1011100002980028C7D002980138029020688068A1
:101120000006D7D4BFE70000411E0020B0EB116FCE
:101130001CBF012070474EF21002CEF20002516037
:101140004EF62351CEF20001F0230B700721906080
:1011500011607047002804BF0120704710B5044695
:1011600090F83D0028B9002084F83C00204600F0AB
:1011700021F8242084F83D002068C16821F4005142
:10118000C160204600F00CFB2068016921F4904109
:101190000161416921F02A014161C16841F40051B6
:1011A000C16000202021206484F83D1084F83E10A6
:1011B00010BD000080B586B0016844F60000C4F29E
:1011C0000000814202D006B080BD00BF002143F67E
:1011D00030020191C4F20202136900F5E23043F4D7
:1011E00080231361136903F480230193019B019110
:1011F000136843F008031360126802F008020192BA
:10120000019A4FF4407201920222CDE9022103219A
:1012100004910721059101A9FFF756F906B080BD99
:10122000FEE70000F0B583B041F200440F20C4F2A5
:1012300002048DF80300002620464FF4805100225E
:101240008DF80260FFF722FA40F22415C2F2000581
:101250000DF103012846012264230127FFF73AFE1E
:101260000DF10201284601226423FFF733FE2046D8
:101270004FF480510122FFF709FA0C208DF8050088
:1012800020464FF4805100228DF80470FFF7FEF9DC
:101290000DF10501284601226423FFF71BFE01A979
:1012A000284601226423FFF715FE20464FF48051A3
:1012B0000122FFF7EBF90B208DF8070007208DF8CE
:1012C000060020464FF480510022FFF7DFF90DF1B0
:1012D0000701284601226423FFF7FCFD0DF10601FA
:1012E000284601226423FFF7F5FD20464FF4805184
:1012F0000122FFF7CBF90A208DF8090020464FF4B0
:10130000805100228DF80860FFF7C0F90DF1090146
:10131000284601226423FFF7DDFD02A928460122A9
:101320006423FFF7D7FD20464FF480510122FFF7D9
:10133000ADF909208DF80B00FF208DF80A0020463A
:101340004FF480510022FFF7A1F90DF10B0128465F
:1013500001226423FFF7BEFD0DF10A012846012298
:101360006423FFF7B7FD20464FF480510122FFF7B9
:101370008DF903B0F0BD00002DE9F04786B00024E0
:1013800043F63000CDE904440094C4F20200016841
:1013900040F6000841F0100101600168C4F2020843
:1013A00001F01001009100990094016808F5406572
:1013B00041F0800101600168002201F0800100918C
:1013C0000099009401684FF4805A41F001010160D6
:1013D000016801F00101009100990094016841F059
:1013E00020010160016801F0200100910099009442
:1013F000016841F008010160016801F008010091F5
:1014000000990094016841F00401016000684FF404
:10141000805100F00400009000982846FFF736F94C
:1014200040464FF4407100224FF44079FFF72EF907
:10143000182001904FF4881008F5006701AECDE93F
:10144000020438463146FFF73FF8602001904FF420
:101450000410CDE9020438463146FFF735F801277C
:1014600028463146CDF804A0CDE902740494FFF774
:101470002BF840463146CDE90197CDE90344FFF70B
:1014800023F8092005210022FFF790F90920FFF732
:1014900079F90A2005210022FFF788F90A20FFF7D1
:1014A00071F9172005210022FFF780F91720FFF7B7
:1014B00069F906B0BDE8F08710B540F2241043F298
:1014C0000001C2F20000C4F201014FF48272002355
:1014D0004FF4006C4FF4007E182480E80E100A21AF
:1014E000C0E90433C0E906E4C0E90833C0E90A31C1
:1014F000FFF760FC002808BF10BDBDE81040FEF7F4
:1015000023BF000080B540F27C1044F60001C2F217
:101510000000C4F2000100234FF00C0C4FF4E13244
:1015200080E80E00C0E90333C0E905C3C361FFF7DB
:1015300011FE002808BF80BDBDE88040FEF704BF53
:10154000FEE70000FEE700000000000000000000D1
:10155000EFF30980BFF36F8F154B1A681EF0100F61
:1015600008BF20ED108A20E9F04F10602DE9090036
:101570004FF0500080F31188BFF34F8FBFF36F8F90
:1015800001F046FB4FF0000080F31188BDE8090030
:1015900019680868B0E8F04F1EF0100F08BFB0ECF3
:1015A000108A80F30988BFF36F8F704700BF00BFB8
:1015B000200000202DE9F04182B01E4690460D46E5
:1015C0000446FFF769F8301A00EB0807FFF764F8E4
:1015D00040F20C01C2F200010968C1F3CB3179433A
:1015E000019121688A682A40AA4227D1064618F14B
:1015F00001001FD0FFF750F8801BB84222D201989B
:1016000001990028A1F1010101912168896808BFB1
:10161000074601EA0500A842ECD00FE088682840A0
:10162000A8420BD188682840A84207D18868284082
:10163000A84203D188682840A842EFD0002002B019
:10164000BDE8F081D4E900014268B1F5827F22F063
:10165000E00242600AD1A168B1F5004F02D0B1F5B5
:10166000806F03D1016821F040010160A16AB1F5EA
:10167000005F07D1016821F400510160016841F465
:1016800000510160012084F85100002084F85000CE
:10169000032002B0BDE8F08100000000000000005F
:1016A000074B19680868B0E8F04F80F30988BFF36A
:1016B0006F8F4FF0000080F31188704700BF00BFAC
:1016C0002000002080B5FEF7EDFF02F051F8012860
:1016D00008BF80BDBDE8804001F0BABBB0B592B094
:1016E000002443F64000CDE90A44CDE908440594BE
:1016F000CDE90344CDE901440094C4F2020001683D
:10170000022541F080510160006800F08050009097
:10171000009847F200000094C4F20000016841F410
:1017200040410160006800F44040009000980120B2
:1017300006904FF4A02007904FF480000D900420F5
:101740000E90A820CDE90F050720119006A80C9552
:10175000FFF776F920B1EFF3108072B6FEE700BF15
:101760000F20CDE901054FF4A05004904FF48050B4
:10177000059001A805210394FFF754F820B1EFF379
:10178000108072B6FEE700BF12B0B0BD4EF68850B2
:10179000CEF20000016841F4700101607047000062
:1017A00010B504460068D4E902C22369016921F436
:1017B000405111430161626943EA0C01E36911433D
:1017C000C268194349F20C639A431143C1604169ED
:1017D000A26921F4407141F20043114340F4806258
:1017E000C4F201039A42416102D1FFF7DFF801E040
:1017F000FFF7C8F8E16963681922B1F5004FA0FB53
:10180000020123D15A00DB0FFEF7ECFC48F21F5116
:10181000C5F2EB11A0FB01235A094FF69C73C0F6E9
:10182000FF7303F1805302FB0300322303EBC0007C
:10183000A0FB01014FF4F87000EA111000EB021058
:10184000C1F3421108442168886010BD9A009B0FC3
:10185000FEF7C8FC48F21F51C5F2EB11A0FB0123B3
:101860005A094FF69C73C0F6FF7302FB0300322344
:1018700003EB0010A0FB0101F02000EA511000EB87
:101880000210C1F3431108442168886010BD0000B4
:10189000FEE70000B0B582B041F20044C4F2020499
:1018A0008DF807008DF8061020464FF48051002275
:1018B000FEF7ECFE40F22415C2F200050DF107011F
:1018C000284601226423FFF705FB0DF10601284697
:1018D00001226423FFF7FEFA20464FF480510122D3
:1018E000FEF7D4FE02B0B0BD44F60001C4F2000120
:1018F0000A68520609D40A6852065CBF0A685FEAA1
:10190000426202D40A685206F2D5C2B24A607047F7
:1019100082B0FEF7D5FEFFF7E1FEFFF72DFDFFF7E2
:10192000CBFDFFF7EFFDFFF77DFC13A002F0E0FA1F
:10193000032001210022012501F0A2FA40F218043F
:10194000C2F2000444F8040B42F28140C0F60000E9
:101950000DA1802200230095019401F09DFE0DA0B1
:1019600002F0C6FA43F62C70C0F6000002F0C0FA8E
:1019700001F0CEF8FEE700BF696E697420737563ED
:1019800063657373200D0000377365676D656E7452
:10199000000000007374617274207363686564757D
:1019A0006C6572200D0000002DE9F041044600F046
:1019B00073FE40F22006C2F20006F06840F2B02545
:1019C0000130F0603068C2F2000558B1306900287B
:1019D00040F007813068E16AC06A884298BF34608D
:1019E000FFE000BF3460F068012840F0FA8028462C
:1019F00000F0F8FD05F1140000F0F4FD05F12800F9
:101A000000F0F0FD05F13C0000F0ECFD05F15000A8
:101A100000F0E8FD05F1640000F0E4FD05F1780058
:101A200000F0E0FD05F18C0000F0DCFD05F1A00008
:101A300000F0D8FD05F1B40000F0D4FD05F1C800B8
:101A400000F0D0FD05F1DC0000F0CCFD05F1F00068
:101A500000F0C8FD05F5827000F0C4FD05F58C703E
:101A600000F0C0FD05F5967000F0BCFD05F5A07016
:101A700000F0B8FD05F5AA7000F0B4FD05F5B470EE
:101A800000F0B0FD05F5BE7000F0ACFD05F5C870C6
:101A900000F0A8FD05F5D27000F0A4FD05F5DC709E
:101AA00000F0A0FD05F5E67000F09CFD05F5F07076
:101AB00000F098FD05F5FA7000F094FD05F5027050
:101AC00000F090FD05F5077000F08CFD05F50C7039
:101AD00000F088FD05F5117000F084FD05F5167025
:101AE00000F080FD05F51B7000F07CFD05F5207011
:101AF00000F078FD05F5257000F074FD05F52A70FD
:101B000000F070FD05F52F7000F06CFD05F53470E8
:101B100000F068FD05F5397000F064FD05F53E70D4
:101B200000F060FD05F5437000F05CFD05F54870C0
:101B300000F058FD05F54D7000F054FD05F55270AC
:101B400000F050FD05F5577000F04CFD05F55C7098
:101B500000F048FD05F5617000F044FD05F5667084
:101B600000F040FD05F56B7000F03CFD05F5707070
:101B700000F038FD05F5757000F034FD05F57A705C
:101B800000F030FD05F57F7000F02CFD05F582605A
:101B900000F028FD05F2244000F024FD05F58760E3
:101BA00000F020FD05F24C4000F01CFD40F2FC0866
:101BB000C2F20008404600F015FD08F1140738464F
:101BC00000F010FD06F1640000F00CFD06F13C0091
:101BD00000F008FD06F1500000F004FDC6F81C807E
:101BE00037627068716A421CE06A7260884262649F
:101BF00088BF706200EB800005EB8000211D00F0C3
:101C000033FD00F06DFD306988B13068E16AC06A6B
:101C1000884228BFBDE8F0814EF60450CEF20000A5
:101C20004FF080510160BFF34F8FBFF36F8FBDE85E
:101C3000F081000040F2200540F2B0264EF6045834
:101C4000C2F20005C2F20006CEF200084FF0805743
:101C500003E000BF204600F05BFDA868D0B100F0B3
:101C60001BFDA86CC468201D00F08EFCE8680138DC
:101C7000E860A8680138A86000F032FD94F85900C7
:101C80000228EAD00128E5D070B9206B00F040FDB1
:101C9000E0E700BF30680228DFD3C8F80070BFF368
:101CA0004F8FBFF36F8FD8E74FF0500080F311884C
:101CB000BFF36F8FBFF34F8FFEE700002DE9F047B2
:101CC0000A9C8246206B16460F46DDE908599100B2
:101CD000A5229846FEF7C9FA206B002F00EB86007C
:101CE000A0F1040020F0070656D0387884F83400BC
:101CF000387800284BD0787884F835007878002838
:101D000045D0B87884F83600B87800283FD0F87805
:101D100084F83700F878D0B3387984F83800387907
:101D2000A8B3787984F83900787980B3B87984F8E1
:101D30003A00B87958B3F87984F83B00F87930B3B1
:101D4000387A84F83C00387A08B3787A84F83D0011
:101D5000787AE0B1B87A84F83E00B87AB8B1F87A07
:101D600084F83F00F87A90B1387B84F84000387BE3
:101D700068B1787B84F84100787B40B1B87B84F807
:101D80004200B87B00281CBFF87B84F84300002089
:101D900084F8430003E000BF002084F834000027EB
:101DA000201D372D28BF3725E562C4E9135700F001
:101DB00025FC04F1180000F021FCC5F13800A061F9
:101DC00030465146424624616462676584F8587023
:101DD00000F042FBB9F1000F206018BFC9F80040C5
:101DE000BDE8F08708480068006880F308884FF075
:101DF000000080F3148862B661B6BFF34F8FBFF363
:101E00006F8F00DF00BF000008ED00E081B0002010
:101E1000009040F21000C2F2000000684FF0500144
:101E200081F31188BFF36F8FBFF34F8F013007D05D
:101E3000FEE700BF009830B9009820B9009810B9AB
:101E400000980028F6D001B07047000088B040F23A
:101E5000980AC2F2000A0DF11009EB46DAF8080000
:101E600005681DB1C068046801E000BF002400F0EF
:101E7000C7FE01F08DFCDAF810100646884220D328
:101E8000002DCAF8106051D0A6424FD301F088FD52
:101E9000DAF80800C068C7683D1D284600F074FBEA
:101EA00097F82800410745D400F0FE0087F8280085
:101EB00084E000BF6860DAF8080039462D6100F060
:101EC000A1FBDAF80800016831B3C068C56804688E
:101ED0002F1D384600F058FB296A2846884795F898
:101EE00028004007EDD5A8692044A042E2D8DAF8DE
:101EF0000000002800F04881002004A931C101F051
:101F000037FCDAF8000049460022002301F06CF8A3
:101F10000028D6D138E100BFDAF80C10CAF81060FA
:101F2000CAE9021001F03CFD1AE100BF65B10022D0
:101F300010E000BFB8693F610119B14279601FD953
:101F40000AF1080021E000BFDAF80C000068B0FADE
:101F500080F04209DAF80000A11B00F0E5FC01F076
:101F60001FFD002840F0FC804EF60450CEF2000029
:101F70004FF080510160BFF34F8FBFF36F8FEFE0E1
:101F8000311B814206D20AF10C000068294600F09C
:101F900039FB13E0DAF80000002800F0138100207C
:101FA00004A991C101F0E4FBDAF8000049460022DF
:101FB000002301F019F8002800F00481396A38463E
:101FC0008847CDE00098B0F1FF3F07DCDDE9012054
:101FD000039990470098002800F1C280029E706922
:101FE00010B1301D00F0D0FA01F0D2FBDAF8101079
:101FF000074688420DD30098CAF8107009283FD9C7
:10200000AEE000BF6860DAF8080021462D6100F0FC
:10201000F9FADAF80800016841B3C068C568D0F879
:1020200000802C1D204600F0AFFA296A2846884718
:1020300095F828004007ECD5A86940444045E1D810
:10204000DAF80000002800F095800020CDE90408AF
:10205000069501F08DFBDAF80000494600220023C6
:1020600000F0C2FF0028D4D184E000BFDAF80C10E1
:10207000CAE902100098CAF81070092800F27080AE
:10208000DFE800F00606064448620606444800BF42
:1020900096F82800019A40F00101B06986F82810EE
:1020A0008318314641F8043FBB42366106D9974256
:1020B0000AF1080007D293420AD204E0BA1A824217
:1020C00006D20AF10C00006800F09CFA48E000BF5C
:1020D000316A3046884796F82800400740D5DAF83C
:1020E000000000285AD00198B169069608440021E2
:1020F000CDE9041001F03CFBDAF80000494600226B
:10210000002300F071FF58BB48E000BF96F828009C
:1021100022E000BF96F8280040F00101019886F8FF
:1021200028100028B06143D0384431460AF10C022F
:1021300041F8040F3661B84288BF0AF108021068FE
:1021400000F060FA0CE000BF96F82800810703D485
:10215000304600F0DDFA03E000F0FE0086F82800CB
:10216000DAF800005946002201F000F900287FF457
:1021700029AF73E64FF0500080F31188BFF36F8FE3
:10218000BFF34F8FFEE700BF4FF0500080F3118880
:10219000BFF36F8FBFF34F8FFEE700BF4FF05000CC
:1021A00080F31188BFF36F8FBFF34F8FFEE700BF3F
:1021B0004FF0500080F31188BFF36F8FBFF34F8F44
:1021C000FEE700BF4FF0500080F31188BFF36F8F20
:1021D000BFF34F8FFEE70000F0B581B0044600F07A
:1021E0005BFA94F94560012E0FDB04F1240500BF72
:1021F000286850B1284601F099FB002818BF00F06C
:1022000007FCF0B2013E0128F2D8FF2684F84560B1
:1022100000F066FA00F040FA94F94470012F0EDBEA
:1022200004F11005286850B1284601F07FFB002812
:1022300018BF00F0EDFBF8B2013F0128F2D884F896
:10224000446001B0BDE8F04000F04ABA70B5044601
:1022500000F0D6FC40F2D40CC2F2000CDCF8040012
:1022600050B19CF80000002818BF4FF000404FF01C
:10227000000574BB8DE000BF40F21070C2F2000098
:10228000C21D22F0070210F00701A0EB020318BFE5
:10229000104600224FF47055CCE90602002918BF01
:1022A00003F57055411921F00701A1F10803CCF89D
:1022B000043041E90222191AC0E9003101208CF8EA
:1022C00000004FF00040CCE90211002C4FF0000557
:1022D0005FD020405DD124F0070000F110026007BC
:1022E00008BF04F10802002A4FF0000551D0DCF8C5
:1022F000080082424DD8604650F818EFDEF80450CE
:1023000095422CD2DEF80010C1B174464D6895425A
:1023100018D20B68B3B15D68954217D21868A8B19E
:102320004568954216D20468A4B16568954215D2F5
:102330002168A6460029E9D111E000BF0CF1180080
:102340000DE000BF8E46204609E000BF9E460846CD
:1023500005E000BF8646184601E000BFA646DCF84F
:1023600004108E4514D00168DEF80040AB1A112B22
:1023700004604DD30EEB0205680719D04FF05000F2
:1023800080F31188BFF36F8FBFF34F8FFEE700BF5D
:10239000002501F005FB68075BD04FF0500080F38B
:1023A0001188BFF36F8FBFF34F8F00BFFEE700BFF1
:1023B0000CF118006B60CEF8042000BF0368AB423C
:1023C0000AD21868A8420BD20368AB4204D218683C
:1023D0001A46A842F2D304E00246184601E000BFC4
:1023E0001A4653686C68D618AE4202D11C44154692
:1023F00054602B19834207D1DCF80430984203D093
:10240000D0E9000323446B60AA42286018BF15601E
:1024100001F10805DEF80400DCE90212091A914214
:10242000CCF8081038BFCCF80C109CF8001000292C
:1024300018BF40F00040CEF80400DCF81000002186
:102440000130CEF80010CCF8100001F0A9FA6807AE
:10245000A3D1284670BD0000034641F60D60C0F6CA
:1024600000004FF0807C21F0010103E903106FF0C0
:10247000020043F8240CA3F1440043F8202C7047D9
:1024800084B040F2180A4CF6CD4B49F6991800205A
:10249000C2F2000A0DF106053AA60DF10707CCF6C7
:1024A000CC4BC1F699188DF806000BE040F6000001
:1024B000C4F202004FF480710022FEF7E7F86420B6
:1024C00000F05CFA01F064F9044644F6D350C1F21E
:1024D0006200A4FB0001DAF800004FEA91192946D6
:1024E000002201F015F89DF8060002280AD046F2F5
:1024F0004E130128C0F2BC0305D142F66B03C0F2B3
:10250000AB0300E04B4638460921324601F01AFB86
:102510009DF807100820FFF7BDF99DF80810072067
:10252000FFF7B8F99DF809100620FFF7B3F99DF8F9
:102530000A100520FFF7AEF99DF80B100420FFF7F5
:10254000A9F99DF80C100320FFF7A4F99DF80D10D0
:102550000220FFF79FF99DF80E100120FFF79AF96E
:1025600009FB0BF04FEA700040459FD8B4F57A7F25
:102570009CD340F60000C4F202004FF48071FEF7D5
:102580007DF89CE725386400D0E9013201699A6042
:10259000D1F804C082688445536008BF4A600022B5
:1025A00002610868013808600868704744F21453F3
:1025B000C2F20003036044F21430C2F2000008606B
:1025C000802010607047000044F67013C2F20003D0
:1025D000036044F27050C2F2000008604FF4807053
:1025E000106070474FF0FF31024642F8081F00218B
:1025F0004260C0E9032201607047000000210161D0
:102600007047000010B5D1F800E01EF1010213D0B0
:1026100000F1080462681368734511D853681C6898
:10262000744511D85A68146874450FD854682368E3
:10263000A4467345EED90BE00269D2F804C007E066
:102640009446224604E000BF9C4601E094461A46A8
:10265000C1F804C0CCF808108A60516008610168B4
:102660000131016010BD0000D0F800C0436808616E
:102670009A684B608A609A68996051600CF1010118
:1026800001607047DFF80C00016841F470010160DF
:102690007047000088ED00E04FF0500080F3118893
:1026A000BFF36F8FBFF34F8F40F21000C2F20000F4
:1026B00001684A1C026009B1704700BF4EF6045021
:1026C000CEF200000068000608BF70474FF05000CF
:1026D00080F31188BFF36F8FBFF34F8FFEE70000C9
:1026E00040F21000C2F20000016839B10139016006
:1026F00018BF7047002080F3118870474FF05000DA
:1027000080F31188BFF36F8FBFF34F8FFEE7000098
:1027100070B5002808BF70BD40F2D405C2F20005B4
:102720000446287854F8041C002818BF4FF00040D5
:1027300008420DD0A4F1080632689AB14FF050005B
:1027400080F31188BFF36F8FBFF34F8FFEE700BF99
:102750004FF0500080F31188BFF36F8FBFF34F8F9E
:10276000FEE700BF21EA000044F8040C00F048FA3C
:1027700054F8041CA8680844A86005F1180000BFBC
:102780000368B3420AD21868B04225D20368B34244
:1027900004D218681A46B042F2D301E00246184645
:1027A0005368D418B44202D11944164651607318C4
:1027B000834206D16B68984203D0D0E900031944E4
:1027C0007160B242306018BF16606869013068619C
:1027D000BDE8704001F0E4B81A465368D418B4421A
:1027E000E5D1E1E74EF21000CEF2000000210160D9
:1027F000816040F20C01C2F20001096844F6D35234
:10280000C1F26202A1FB02124FF0FF3101EB921103
:10281000416007210160704740F2F400EFF3058149
:102820001029C2F2000011D34EF2F032CEF20002B3
:10283000895C0278914209D24FF0500080F31188F0
:10284000BFF36F8FBFF34F8FFEE700BF4EF60C5103
:10285000CEF200010968406801F4E061814298BF4E
:1028600070474FF0500080F31188BFF36F8FBFF3B4
:102870004F8F00BFFEE7000044F6CC1CC2F2000CF4
:10288000DCF8002022B3634653F8082F42B36346B6
:1028900053F8102F52B3634653F8182F62B36346B0
:1028A00053F8202F72B3634653F8282F82B3634640
:1028B00053F8302F92B3634653F8382F002A18BFCD
:1028C0007047072219600CEBC2014860704700BFD7
:1028D0000022634619600CEBC2014860704700BFDC
:1028E000012219600CEBC201486070470222196096
:1028F0000CEBC20148607047032219600CEBC20167
:1029000048607047042219600CEBC20148607047B0
:10291000052219600CEBC20148607047062219605D
:102920000CEBC2014860704770B515460E46044670
:10293000FFF7B2FE94F84400FF2804BF002084F89B
:10294000440094F84500FF2804BF002084F84500A7
:10295000FFF7C6FEA06B28B12046BDE87040FFF728
:102960003BBC00BF04F1240031462A4600F092F837
:102970002046BDE87040FFF72FBC000070B588B35B
:1029800040F22005C2F200050446686950B14FF0DC
:10299000500080F31188BFF36F8FBFF34F8F00BFDC
:1029A000FEE700BF686901306861AE6928680430DD
:1029B000FFF7EAFD2868A419446005D3286A29684E
:1029C0000431FFF71FFE08E0E86929680431FFF7CA
:1029D00019FEE86A844238BFEC6200F0E1FF00288B
:1029E00018BF70BD4EF60450CEF200004FF080517B
:1029F0000160BFF34F8FBFF36F8F70BD40F22001B6
:102A0000C2F200018A6B0260896941607047000070
:102A100040F22000C2F20000012101637047000073
:102A200070B5D8B140F22004C2F200040D4621680E
:102A30001831FFF7E7FDA66920680430FFF7A4FD11
:102A4000681C15D02068AD19456019D3206A21682B
:102A50000431BDE87040FFF7D5BD00BF4FF0500016
:102A600080F31188BFF36F8FBFF34F8FFEE700BF76
:102A700054F8500B011D2046BDE87040FFF7F4BD2F
:102A8000E06921680431FFF7BDFDE06A854238BF87
:102A9000E56270BDF0B581B0C0B140F22004C2F271
:102AA00000040D46216816461831FFF7DDFDA769C1
:102AB00020680430FFF768FD96B154F8500B011DF3
:102AC000204601B0BDE8F040FFF7CEBD4FF050000A
:102AD00080F31188BFF36F8FBFF34F8FFEE700BF06
:102AE0002068ED19456007D3206A2168043101B0E0
:102AF000BDE8F040FFF786BDE06921680431FFF7CB
:102B000081FDE06A854238BFE56201B0F0BD00009A
:102B100010B588B00020CDE9050006A805A904AAD3
:102B2000FFF744FD059800283ED0069C002C45D0B8
:102B30005C21049A079107995C2949D10799206380
:102B4000022084F8590007A80021CDE9001041F6C1
:102B50003540C0F6000028A100230294FFF7AEF82C
:102B60002046FEF721FF079840F22004C2F200043D
:102B7000A062B0B100F08CFF411C33D0012810D10D
:102B80004FF0500080F31188BFF36F8FBFF34F8F6A
:102B90004FF0FF30E062012020610020A06100F0D2
:102BA00095F808B010BD00BF4FF0500080F31188B9
:102BB000BFF36F8FBFF34F8FFEE700BF4FF05000A2
:102BC00080F31188BFF36F8FBFF34F8FFEE700BF15
:102BD0004FF0500080F31188BFF36F8FBFF34F8F1A
:102BE000FEE700BF4FF0500080F31188BFF36F8FF6
:102BF000BFF34F8FFEE700BF49444C450000000083
:102C000040F22000C2F20000416901314161704789
:102C100080B540F2200EC2F2000EDEF8141019B199
:102C20000121CEF8301080BD0021CEF83010DEF842
:102C3000241040F2B02C01EB8103C2F2000C5CF8CE
:102C400023208AB101EB81020CEB820353F8042F9D
:102C50005268181D82421A6020D0D068CEF8000059
:102C6000CEF8241080BD00BF0CEB8302A2F1280334
:102C7000E1B15A6922BB012918D01A6812BB022996
:102C800014D053F8142CFAB903290FD053F8282C78
:102C90000439002AA3F15003EAD0D3E752681A603E
:102CA000D068CEF80000CEF8241080BD4FF0500060
:102CB00080F31188BFF36F8FBFF34F8FFEE700BF24
:102CC0000139BFE70239BDE70339BBE7B0B584B0CE
:102CD0004EF2004CCEF2000C4CF27021C4F20F11F7
:102CE000DCF800294B1C9A420AD14FF0500080F3C7
:102CF0001188BFF36F8FBFF34F8F00BFFEE700BF98
:102D0000DCF800298A4209D14FF0500080F3118885
:102D1000BFF36F8FBFF34F8FFEE700BF9CF800102B
:102D20000291FF218CF800109CF800108DF807101C
:102D30009DF8071001F0500240F2F401C2F20001C8
:102D40000A7007224A609DF90720B2F1FF3F69DC53
:102D5000032200BFD31C4B609DF8070040008DF894
:102D600007009DF90700B0F1FF3F23DC931C4B6087
:102D70009DF8070040008DF807009DF90700B0F1AD
:102D8000FF3F17DC531C4B609DF8070040008DF897
:102D900007009DF90700B0F1FF3F0BDC4A609DF88A
:102DA0000700043A40008DF807009DF9070000284D
:102DB000D0D4131D032B35D14FF4407048600298D6
:102DC0008CF80000DCF8200940F47000CCF82009F1
:102DD000DCF8200940F07040CCF82009FFF702FD34
:102DE00040F21004C2F2000400252560FFF74AFCFF
:102DF0004EF63470CEF20000016841F040410160AF
:102E0000FEF7F0FFFFF704FF039520684FF0500135
:102E100081F31188BFF36F8FBFF34F8F013011D053
:102E2000FEE700BF4FF0500080F31188BFF36F8FB3
:102E3000BFF34F8FFEE700BF039830B9039820B966
:102E4000039810B903980028F6D0002004B0B0BD54
:102E500080B54FF0500080F31188BFF36F8FBFF340
:102E60004F8F00F09BFC30B14EF60450CEF20000C4
:102E70004FF080510160002080F3118880BD000078
:102E80002DE9F041B0B306464843503014460F4692
:102E9000FFF7DCF9054650B34FF00008284685F8E7
:102EA0004680002F18BF50302860C5E90F67FFF734
:102EB000F3FB2868D5E90F12C5F8388002FB01033F
:102EC000013901FB0201C5E90103FF20E96085F832
:102ED000440085F8450005F11000FFF783FB05F17C
:102EE0002400FFF77FFBFFF7FBFB85F84C402846EB
:102EF000BDE8F0814FF0500080F31188BFF36F8F71
:102F0000BFF34F8FFEE7000070B582B070B11C4672
:102F1000B3B1F9B9F2B14FF0500080F31188BFF3AB
:102F20006F8FBFF34F8F00BFFEE700BF4FF0500021
:102F300080F31188BFF36F8FBFF34F8FFEE700BFA1
:102F40004FF0500080F31188BFF36F8FBFF34F8FA6
:102F5000FEE700BF51B14AB94FF0500080F311882D
:102F6000BFF36F8FBFF34F8FFEE700BF5023019376
:102F7000019B502B2ED1019B069E012384F84630E5
:102F8000002908BF22462260C4E90F01FFF784FB35
:102F90002068D4E90F12002502FB0103013901FB6F
:102FA0000201A563C4E90103FF20E16084F8440045
:102FB00084F8450004F11000FFF714FB04F124002D
:102FC000FFF710FBFFF78CFB204684F84C6002B043
:102FD00070BD00BF4FF0500080F31188BFF36F8FBA
:102FE000BFF34F8FFEE700002DE9F04F83B0029250
:102FF000C0B11D4617460E460446E9B1022D03D165
:10300000E06B012840F0888000F0B2FB10BB0FB3EA
:103010004FF0500080F31188BFF36F8FBFF34F8FD5
:10302000FEE700BF4FF0500080F31188BFF36F8FB1
:10303000BFF34F8FFEE700BF206C0028DED04FF0BB
:10304000500080F31188BFF36F8FBFF34F8F00BF25
:10305000FEE700BFFFF720FBA06B022D66D0E16BFF
:10306000884263D304F1100801206F460DF108096E
:103070000DE000BF2046FFF7AFF800F091FCFFF72E
:103080000BFBA06BE16B88424FF000004ED302991E
:10309000002973D0C00702D03846FFF7AFFCFFF716
:1030A0001FFBFFF7ADFDFFF7F7FA94F84400FF2888
:1030B00004BF002084F8440094F84500FF2804BFB2
:1030C000002084F84500FFF70BFB3846494600F026
:1030D00091FA002858D1FFF7DFFAD4F838A0D4F8D5
:1030E0003CB0FFF7FDFADA45C4D102994046FFF73C
:1030F00097FC2046FFF770F800F052FC0028BED184
:103100004EF60450CEF200004FF080510160BFF344
:103110004F8FBFF36F8FB2E74FF0500080F31188ED
:10312000BFF36F8FBFF34F8FFEE700BFA76B226C1B
:10313000D2B19DB3E0683146FDF785F8E168206CB7
:103140002268091A9142E16003D2A1684042084412
:10315000E060A81EB0FA80F040093946002F18BF81
:10316000012108403F1A26E02068002520BBA06806
:1031700000F096FBA56005461EE000BFFFF7B0FA21
:10318000002003B0BDE8F08F2046FFF725F800F0DF
:1031900007FC002003B0BDE8F08F00BF6068314637
:1031A000FDF751F8216CD4E90102084490426060B7
:1031B00001D3206860600025781CA06354F8240FB8
:1031C000A0B1204600F0B2FB50B14EF60450CEF252
:1031D00000004FF080510160BFF34F8FBFF36F8F3E
:1031E000FFF77EFA012003B0BDE8F08F002DF7D085
:1031F0004EF60450CEF200004FF080510160BFF354
:103200004F8FBFF36F8FFFF76BFA012003B0BDE85C
:10321000F08F00002DE9F04700B31E461446054626
:103220000F4629B3022E02D1E86B012852D1FFF7D5
:10323000F3FAEFF311884FF0500080F31188BFF3D9
:103240006F8FBFF34F8FA86B022E1FD0E96B8842A0
:103250001CD3002088F31188BDE8F0874FF05000A0
:1032600080F31188BFF36F8FBFF34F8FFEE700BF6E
:10327000286C0028D6D04FF0500080F31188BFF39F
:103280006F8FBFF34F8F00BFFEE700BF95F84590EB
:10329000A86BD5F838A02A6C32B36EB3E86839460B
:1032A000FCF7D1FFE968286C2A68091A9142E960A5
:1032B00003D2A96840420844E860B01EB0FA80F02A
:1032C00040095146BAF1000F18BF01210840AAEB8E
:1032D000000A1EE04FF0500080F31188BFF36F8F9B
:1032E000BFF34F8FFEE700BF286890B9A86800F0D1
:1032F000D7FA0020A8600CE068683946FCF7A3FF05
:10330000296CD5E9010208449042686001D328681D
:1033100068600AF10100B9F1FF0FA86310D155F8F8
:10332000240FB8B1284600F001FB0146002C4FF0F5
:10333000010018BF002913D188F31188BDE8F08778
:1033400009F1010085F84500012088F31188BDE8E6
:10335000F08700BF012088F31188BDE8F08700BF27
:103360000120206088F31188BDE8F0872DE9F04F37
:1033700083B0029290B116460D460446002947D00C
:1033800000F0F6F9A0B99EB14FF0500080F311881B
:10339000BFF36F8FBFF34F8FFEE700BF4FF05000BA
:1033A00080F31188BFF36F8FBFF34F8FFEE700BF2D
:1033B000FFF772F9D4F838A0BAF1000F36D0226CBA
:1033C00052B1D4E902308118E160994224BF2168EA
:1033D000E1602846FCF737FFAAF10100A06354F82A
:1033E000100F70B1204600F0A1FA50B14EF6045013
:1033F000CEF200004FF080510160BFF34F8FBFF35A
:103400006F8F0124FFF76CF9204603B0BDE8F08F01
:10341000206C0028B4D04FF0500080F31188BFF327
:103420006F8FBFF34F8F00BFFEE700BF04F124088A
:1034300001206F464FF000090DF1080B2EE000BF90
:10344000FFF74EF9FFF7DCFBFFF726F994F844008D
:10345000FF2808BF84F8449094F84500FF2808BF6F
:1034600084F84590FFF73CF93846594600F0C2F819
:10347000E0B12046FEF7B0FE00F092FAFFF70CF93B
:10348000A66BFFF72DF9002E3CD0FFF705F9D4F815
:1034900038A00020BAF1000F7FF491AF029949B330
:1034A000C007CDD03846FFF7A9FAC9E7FFF7F4F80F
:1034B000A66BFFF715F92EB12046FEF78DFE00F042
:1034C0006FFAE2E702994046FFF7AAFA2046FEF7B4
:1034D00083FE00F065FA0028D7D14EF60450CEF2F4
:1034E00000004FF080510160BFF34F8FBFF36F8F2B
:1034F000CBE700BF0024FFF7F3F8204603B0BDE898
:10350000F08F00BF0024204603B0BDE8F08F00001C
:103510002DE9F04381B000283ED0914605460E4685
:10352000002943D0FFF778F9EFF311884FF05000EE
:1035300080F31188BFF36F8FBFF34F8FAC6B002CFC
:1035400042D095F844702A6C52B1D5E90230811806
:10355000E960994224BF2968E9603046FCF773FEB0
:10356000601EFF2FA86335D155F8100F00283BD0FF
:10357000284600F0DBF90146B9F1000F4FF00100D9
:1035800004D000291CBF0120C9F8000088F311886D
:1035900001B0BDE8F08300BF4FF0500080F3118808
:1035A000BFF36F8FBFF34F8FFEE700BF286C00287B
:1035B000B8D04FF0500080F31188BFF36F8FBFF386
:1035C0004F8F00BFFEE700BF002088F3118801B0D5
:1035D000BDE8F083781C85F84400012088F3118849
:1035E00001B0BDE8F08300BF012088F3118801B06D
:1035F000BDE8F083B0B5D8B10D4619B30446FFF766
:103600004BF840F2200CC2F2000CDCF818202968BC
:103610004B1C21D0D4E9000EDCF83830834221D095
:1036200072451FD30124FFF75BF82046B0BD00BFF1
:103630004FF0500080F31188BFF36F8FBFF34F8FAF
:10364000FEE700BF4FF0500080F31188BFF36F8F8B
:10365000BFF34F8FFEE700BF0024FFF741F820467D
:10366000B0BD00BFA2EB0E0291420DD9881A2860AE
:10367000DCF838002060DCF8180060600024FFF7F8
:103680002FF82046B0BD00BF002001242860FFF7BE
:1036900027F82046B0BD00002DE9F04383B007466F
:1036A0009000984615468946FEF7D0FDF8B10646CB
:1036B0005C20FEF7CBFDB8B10446DDE90A1000221C
:1036C000266384F85920CDE90010384649462A4639
:1036D00043460294FEF7F2FA2046FEF765F9012010
:1036E00003B0BDE8F08300BF3046FFF711F84FF09C
:1036F000FF3003B0BDE8F08370B586B00B9CCCB151
:103700000C9E0EB35C250495049D5C2D26D1049D72
:10371000DDF828C0022586F8595005AD3463CDE99F
:1037200000C50296FEF7CAFA3046FEF73DF9059845
:1037300006B070BD4FF0500080F31188BFF36F8F5B
:10374000BFF34F8FFEE700BF4FF0500080F31188AA
:10375000BFF36F8FBFF34F8FFEE700BF4FF05000F6
:1037600080F31188BFF36F8FBFF34F8FFEE7000028
:1037700040F22000C2F20000016900290FBF0120C1
:103780004069B0FA80F0400918BF4000704700005F
:1037900040F22000C2F20000806970472DE9F0433A
:1037A00081B040F22006C2F20006706940B1706B31
:1037B000002401307063204601B0BDE8F08300BFF3
:1037C000B06910F10109C6F8189020D3F0690068BB
:1037D00050B14FF0500080F31188BFF36F8FBFF3EB
:1037E0004F8F00BFFEE700BFF069316AF1613062C0
:1037F000B06B0130B063F069006828B1F069C0684F
:10380000C068406802E000BF4FF0FF30F062F06A2D
:1038100040F2B0288145C2F2000801D200242EE017
:10382000F0690024006813E0F86A716A884288BF72
:10383000706200EB800008EB80002946FEF714FF61
:10384000F86A3168C96AF269884228BF01241068A1
:1038500090B1F069C068C7683D4655F8040F8145CE
:103860000CD32846FEF790FEB86A0028DCD007F19A
:103870001800FEF789FED7E74FF0FF30F06230689E
:10388000C06A00EB800058F82000012888BF01249E
:10389000306B002818BF0124204601B0BDE8F0833A
:1038A00070B588B140F22006C2F2000604463068C6
:1038B000A0420BD04FF0500080F31188BFF36F8F00
:1038C000BFF34F8FFEE700BF002070BD206D18B31F
:1038D000411EE06AE26C216590424FF0000008BF93
:1038E00070BDC1B9251D2846FEF74EFEE06CC0F143
:1038F0003801E062A161716A884240F2B02188BF5C
:10390000706200EB8000C2F2000101EB80002946EA
:10391000FEF7AAFE012070BD4FF0500080F3118821
:10392000BFF36F8FBFF34F8FFEE7000070B5C06825
:10393000C5686DB105F118042046FEF725FE40F27A
:103940002006C2F20006706960B106F164001AE058
:103950004FF0500080F31188BFF36F8FBFF34F8F8C
:10396000FEE700BF2C1D2046FEF70EFEE86A716AD6
:10397000884240F2B02188BF706200EB8000C2F242
:10398000000101EB80002146FEF76EFEE86A316817
:10399000C96A884292BF00200120306370BD0000D8
:1039A0002DE9F04140F22005C2F20005686968B1D6
:1039B000FEF772FE686901386861686980B10024A9
:1039C000FEF78EFE2046BDE8F08100BF4FF05000AC
:1039D00080F31188BFF36F8FBFF34F8FFEE700BFF7
:1039E000E8680028EBD0686E88B340F2B026C2F2D7
:1039F00000064FF0010800BF286FC76807F11800E4
:103A0000FEF7C2FD3C1D2046FEF7BEFDF86A696A5E
:103A1000884288BF686200EB800006EB8000214688
:103A2000FEF722FEF86A2968C96A884228BFC5F8ED
:103A30003080686E0028DFD1E869006820B1E8694D
:103A4000C068C068406801E04FF0FF30E8626C6B0E
:103A50004CB10126FFF7A2FE002818BF2E63013CDF
:103A6000F8D100206863286B0028A8D04EF60450D7
:103A7000CEF200004FF080510160BFF34F8F012460
:103A8000BFF36F8FFEF72CFE2046BDE8F0810000EB
:103A900070B586B0FEF700FE40F29806C2F200064E
:103AA000306808BB06F114042046FEF79BFD06F1C2
:103AB00028052846FEF796FD40F2C01240F260232A
:103AC000C6E902450025C2F20002C2F200030A2044
:103AD00010210095FFF718FA306028B143F64371C2
:103AE000C0F60001FEF7C8FEFEF7FAFD3068D8B157
:103AF0000020CDE9040005A804A903AAFEF764FD8F
:103B0000DDE903200221059DCDE9001041F64D605D
:103B1000C0F6000009A100230295FFF7EDFD7060DB
:103B200010B1012006B070BD4FF0500080F3118835
:103B3000BFF36F8FBFF34F8FFEE700BF546D72204E
:103B4000537663000FB47CB50C0009AD01D0611E43
:103B500000E00021CDE90001064B6A46294608989D
:103B600000F01AF8002C02D0009A002111707CBCE1
:103B70005DF814FBDB3E000802E008C8121F08C114
:103B8000002AFAD170477047002001E001C1121FDE
:103B9000002AFBD1704700002DE9FF4F8BB088460B
:103BA0000546002606E025280BD0DDE90D129047DA
:103BB0006D1C761C28780028F5D10FB03046BDE882
:103BC000F08F0024A146A2460122AE4900E0044342
:103BD00015F8013F203B02FA03F00842F7D128789C
:103BE0002A2810D06FF02F022878A0F1300109297F
:103BF00015D809EB890102EB410144F0020400EB06
:103C000001096D1CF0E758F8041B5FEA010903D5B0
:103C100044F40054C9F1000944F002046D1C2878F2
:103C20002E2817D115F8010F44F004042A280ED0CD
:103C30006FF02F022878A0F1300109290AD80AEB89
:103C40008A0102EB410100EB010A6D1CF2E758F812
:103C500004AB6D1C28786C280FD006DC4C2817D0DC
:103C600068280DD06A2814D104E0742810D07A286E
:103C70000FD10DE044F400140AE044F4801401E094
:103C800044F440146978814202D104F580146D1C1B
:103C90006D1C2878692865D006DC00288DD0632843
:103CA00027D0642806D15DE06E2808D073282AD07A
:103CB000752877D0DDE90D129047761CE0E0C4F35B
:103CC0000250022809D003280DD0D8F8001004288B
:103CD0000DD00E6008F10408D2E0D8F80010F217F9
:103CE000C1E90062F6E7D8F800100E80F2E70E7026
:103CF000F0E718F8041B8DF8001000208DF8010083
:103D0000EB46012003E058F804BB4FF0FF30610799
:103D10004FF0000701D40AE07F1C57450DDA8742B7
:103D2000FADB1BF807100029F6D106E07F1C87425A
:103D3000FCDB1BF807100029F8D1DDE90D23A9EB06
:103D400007008146214600F0B1F83044C61904E06E
:103D5000DDE90D121BF8010B90477F1EF8D22146BA
:103D6000484688E058F8040BC4F302514FF00A0BA0
:103D7000032900D100B2042900D140B2002802DAA0
:103D800040422D2102E0210505D52B218DF824107C
:103D9000012104E006E0E10710D02021F6E708AF9A
:103DA000089113E058F8040BC4F302514FF00A0BCA
:103DB000032900D180B2042900D1C0B20021EEE76E
:103DC0005946FCF764FA303107F8011D0028F7D195
:103DD000ADEB070000F1200B600702D524F480341E
:103DE00001E04FF0010ADA4502DDAAEB0B0000E02A
:103DF0000020824600EB0B0108980144A9EB01006A
:103E00000A90E00306D4DDE90D2321460A9800F06C
:103E10004DF806444FF0000908E009A911F809001F
:103E2000DDE90D12904709F10109761C08998945D1
:103E3000F3DBE0030CD5DDE90D2321460A9800F001
:103E400035F8064404E0DDE90D1230209047761C79
:103E5000BAF10001AAF1010AF5DC05E0DDE90D1275
:103E600017F8010B9047761CBBF10001ABF1010B79
:103E7000F4DC0A982146DDE90D2300F005F806443C
:103E80006D1C97E6092801002DE9F0410446002544
:103E90001E461746880404D405E039462020B04762
:103EA0006D1C641EF9D52846BDE8F0812DE9F0416E
:103EB000044600251E469046C80301D5302700E081
:103EC0002027880404D505E041463846B0476D1CDC
:103ED000641EF9D52846BDE8F0814A68002A06D05C
:103EE0000A68531C0B6010704868401E4860704799
:103EF00010B5044601E0FDF7F7FC14F8010B044986
:103F00000028F8D1BDE810400A20FDF7EDBC000004
:103F10000000002000000000000000000102030477
:103F200006070809000000000102030464697370B9
:103F30006C6179206D6F64653A64656661756C7457
:103F4000200D00546D725100683F000800000020F1
:103F500018000000783B0008803F0008180000208F
:103F6000F84D0000883B0008000000000100000040
:103F7000100000000024F400AAAAAAAA0000000071
:04000005080001AD41
:00000001FF
