:020000040800F2
:10000000184E0020C10100086113000861100008AB
:100010005D1300081D030008B91600080000000069
:10002000000000000000000000000000C1140008F3
:10003000210300080000000071130008ED140008FF
:10004000DB010008DB010008DB010008DB01000820
:10005000DB010008DB010008DB010008DB01000810
:10006000DB010008DB010008DB010008DB01000800
:10007000DB010008DB010008DB010008DB010008F0
:10008000DB010008DB010008DB010008DB010008E0
:10009000DB010008DB010008DB010008DB010008D0
:1000A000DB010008DB010008DB010008DB010008C0
:1000B000DB010008DB010008DB010008DB010008B0
:1000C000DB010008DB010008DB010008DB010008A0
:1000D000DB010008DB010008DB010008DB01000890
:1000E000DB010008DB010008DB010008DB01000880
:1000F000DB010008DB010008DB010008DB01000870
:10010000DB010008DB010008DB010008DB0100085F
:10011000DB010008DB010008DB010008DB0100084F
:10012000DB010008DB010008DB010008DB0100083F
:10013000DB010008DB010008DB010008DB0100082F
:10014000DB010008DB010008DB010008DB0100081F
:10015000DB010008DB010008DB010008DB0100080F
:10016000DB010008DB010008DB010008DB010008FF
:10017000DB010008DB010008DB01000800000000D3
:10018000DB010008DB010008DB010008DB010008DF
:10019000DB010008DB010008DB010008DB010008CF
:1001A000DB010008DB010008DB010008DFF80CD0F0
:1001B00000F0A2F80048004739170008184E002048
:1001C0000648804706480047FEE7FEE7FEE7FEE7F1
:1001D000FEE7FEE7FEE7FEE7FEE7FEE7B5150008EF
:1001E000AD0100082DE9F05F0546002092469B46D0
:1001F00088460646814640241BE02846414647463D
:10020000224600F069F853465A46C01A914110D36D
:1002100011461846224600F050F82D1A67EB0108E7
:100220004F4622460120002100F047F817EB000955
:100230004E41201EA4F10104DFDC484631462A4627
:100240004346BDE8F09F40EA01039B0703D009E065
:1002500008C9121F08C0042AFAD203E011F8013BB2
:1002600000F8013B521EF9D27047D2B201E000F80B
:10027000012B491EFBD270470022F6E710B513464A
:100280000A4604461946FFF7F0FF204610BD30B578
:100290000B46014600202022012409E021FA02F544
:1002A0009D4205D303FA02F5491B04FA02F52844DE
:1002B000151EA2F10102F1DC30BD202A04DB203A38
:1002C00000FA02F1002070479140C2F1200320FAA9
:1002D00003F3194390407047202A04DB203A21FAA7
:1002E00002F00021704721FA02F3D040C2F120024F
:1002F0009140084319467047064C074D06E0E068F8
:1003000040F0010394E8070098471034AC42F6D35C
:10031000FFF750FFC83D0008E83D0008FEE7000079
:1003200070470000EFF3108072B600BFFEE70000D8
:100330002DE9F04F82B000F13E4242F2004502F159
:10034000FF77C4F202050A2243F6004E4FEAB726B1
:10035000A84208BF0922C4F2010E092E38BF4FEA95
:10036000B7220125002600274FF00008009208E080
:1003700008F101080437B8F1100F06F1020600F089
:10038000A7800C6805FA08F914EA090FF0D0D1F833
:1003900004B003220BF0030CACF10104B240012CB9
:1003A0006FEA020A10D88268CC6802EA0A02B440F6
:1003B000224382604268CBF3001422EA090204FA65
:1003C00008F42243426005E0BCF1030F02D14FF074
:1003D000030C20E0C2688C6802EA0A02B44022439F
:1003E000BCF1020FC26016D16FF0030202EA58029C
:1003F0000244D2F820C007F01C050F230C69AB4063
:100400002CEA030304FA05F52B431362D1F804B078
:1004100001250BF0030C02680CFA06F302EA0A024B
:100420001A431BF4403F0260A2D0002243F644036B
:100430000192C4F202031A684FF6084C42F480425B
:100440001A601A68CFF6FF7C02F480420192019A8A
:1004500028F00302724452F80C3007F00C050F2408
:10046000AC40A343009C04FA05F52B4342F80C3042
:10047000DEF808204B6842EA090543F60C4CDC0222
:1004800058BF22EA0905CEF80850C4F2010CDCF886
:1004900000209C0242EA090558BF22EA0905CCF86F
:1004A0000050DEF804209C0342EA090558BF22EA06
:1004B0000905CEF80450DEF80020DB0342EA090506
:1004C00058BF22EA0905CEF80050012550E700BFC9
:1004D00002B0BDE8F08F00000069084018BF01209D
:1004E00070470000426902EA0103914341EA034177
:1004F00081617047002A08BF0904816170470000CC
:1005000044F21C30C2F200000068704740F2040060
:1005100044F21C31C2F20000C2F2000100780A6805
:10052000104408607047000080B543F60040C4F2F4
:100530000200016841F400710160016841F48061CA
:100540000160016841F480710160032000F07AF8D5
:100550000F2000F005F800F027F8002080BD000013
:1005600070B540F20406C2F2000640F20C01327887
:10057000C2F200014FF47A730968B3FBF2F2044649
:10058000B1FBF2F1084600F0EFFC0F2C4FF0010533
:1005900008D838B94FF0FF3021460022002500F07E
:1005A00025F87460284670BD82B0002043F64001F3
:1005B0000190C4F202014A6842F480424A604A68EB
:1005C00002F480420192019A00900868002240F0F3
:1005D0008050086008680F2100F08050009000985B
:1005E0006FF0010002B000F001B8000010B54EF647
:1005F0000C5CCEF2000CDCF80030C3F3022E8EF05F
:100600000704042C28BF0424BEF103034FF0FF3E6F
:100610000EFA04F438BF0023A14399400EFA03F305
:100620009A43114300F00F0200F160430901043ABC
:1006300003F564436244002848BF02F10C031970BB
:1006400010BD00004EF60C51CEF200010A684FF6C4
:10065000FF031A4060F30A2242F0806040F0FD7010
:10066000086070472DE9F041002800F08B8043F6C8
:100670000808C4F202080446D8F8F8030D4600F052
:100680000F00884207D288F8F853D8F8F80300F032
:100690000F00A84276D12068810717D5410705D5FC
:1006A000D8F8001041F4E051C8F80010010705D552
:1006B000D8F8001041F46041C8F80010D8F80010D4
:1006C000A26821F0F0011143C8F80010C0073FD123
:1006D000D8F8F80300F00F00A84207D988F8F853BB
:1006E000D8F8F80300F00F00A8424BD1206841076A
:1006F00007D5D8F80010E26821F4E0511143C8F89A
:100700000010000708D5D8F80000216920F46040E7
:1007100040EAC100C8F8000000F07CF8D8F80010EA
:1007200043F66452C1F30311C0F60002515C40F27B
:100730000C0220FA01F140F20800C2F20000006849
:10074000C2F200021160FFF70BFF0020BDE8F0814C
:100750006068811E022907D258F8081C89015CBF15
:100760000120BDE8F08111E0012807D158F8081CEC
:1007700089035CBF0120BDE8F08107E058F8081C40
:10078000890703D40120BDE8F08100BFD8F800102C
:1007900021F003010843C8F80000FFF7B1FE064648
:1007A00041F28837D8F80000616800F00C00B0EB27
:1007B000810F8DD0FFF7A4FE801BB842F2D9032031
:1007C000BDE8F08140F20C0043F60801C2F20000DF
:1007D000C4F202010068096843F67452C1F3822131
:1007E000C0F60002515CC8407047000040F20C00A7
:1007F00043F60801C2F20000C4F202010068096871
:1008000043F67452C1F34231C0F60002515CC84055
:100810007047000010B543F60404C4F20204606897
:1008200000F00C0142F200400829C0F2F40007D0A9
:10083000042918BF10BD41F20020C0F27A0010BD9B
:10084000216801F03F02216823684902C3F388113F
:1008500006D4A1FB00010023FFF7C4FC07E000BFA2
:1008600041F20020C0F27A004843B0FBF2F0216868
:100870000222C1F3014102EB4101B0FBF1F010BDD6
:100880002DE9F04182B0002868D00446007843F694
:100890000006C007C4F202060BD0B06800F00C00DE
:1008A000042840F09F803068800302D560680028EB
:1008B00054D0207880071AD5B06810F00C0F09D0FA
:1008C000B06800F00C00082840F0A6807068400274
:1008D00000F1A2803068800702D5E06801283DD190
:1008E0003068216920F0F80040EAC10030602078CB
:1008F000000737D4207840074CD4A56955B3B068B9
:1009000000F00C00082840F0BB80012D26D0706854
:10091000E16900F480028A4220D1216A00F03F029E
:100920008A421BD147F6C071626A0140B1EB821F57
:1009300014D1A16A4FF6FF73C903994300F4403202
:10094000A1F580318A4209D1E16A00F07060B0EB14
:10095000016F03D1002002B0BDE8F081012002B098
:10096000BDE8F0816069002840F20000C4F2472031
:1009700076D00121C0F8801EFFF7C2FD054600BFFA
:10098000706F8007B6D4FFF7BBFD401B0228F7D974
:10099000DDE000BF306C10F080580AD100200190DB
:1009A000306C40F080503064306C00F0805001902A
:1009B000019847F20007C4F200073868C00541D427
:1009C000386840F480703860FFF79AFD054600BF34
:1009D0003868C00536D4FFF793FD401B0228F7D9CD
:1009E000B5E000BFB06800F00C00082803D17068C3
:1009F00040023FF558AF6068B0F5803F07D0B0F5D2
:100A0000A02F40F08D80306840F480203060306846
:100A100040F4803030608DE0E068002852D0002043
:100A2000C4F2472001210160FFF76AFD054600BFBF
:100A3000306880073FF554AFFFF762FD401B022886
:100A4000F6D984E0A068012805D005284ED1306F82
:100A500040F004003067306F40F0010030674FE035
:100A60000021C0F8801EFFF74BFD0546706F800720
:100A70007FF540AFFFF744FD401B0228F6D966E042
:100A80000027C4F2472700203866FFF739FD022D02
:100A900005460BD1306880015ED5FFF731FD401B64
:100AA00002284FF00300F5D955E700BF30688001F8
:100AB0007FF550AFFFF724FD401B02284FF00300E5
:100AC000F4D948E70020C4F2472000210160FFF775
:100AD00017FD0546306880077FF509AFFFF710FD69
:100AE000401B02284FF00300F4D934E7316F00288F
:100AF00021F001013167316F21F0040131674DD0E0
:100B0000FFF7FEFC054641F2883700BF306F8007D3
:100B100056D4FFF7F5FC401BB842F7D917E000BFE9
:100B20003168002821F480313160316821F480215E
:100B300031604FD0FFF7E4FC054600BF306880030A
:100B40003FF5B7AEFFF7DCFC401B6428F6D9032065
:100B500002B0BDE8F08100BF04F11C052FCD0843B1
:100B600040EA8210D9034FF6FF729143A1F580311C
:100B700040EA05600843706001203866FFF7C0FC5A
:100B8000044600BF306880013FF5E4AEFFF7B8FCD3
:100B9000001B02284FF00300F4D9DCE6FFF7B0FC9D
:100BA000054641F2883700BF306F800708D5FFF750
:100BB000A7FC401BB8424FF00300F5D9CBE600BFBD
:100BC000B8F1000F7FF499AE306C20F080503064A3
:100BD00093E600BFFFF794FC054600BF3068800332
:100BE0007FF567AEFFF78CFC401B64284FF00300D5
:100BF000F4D9B0E670B538B10446406A30B100208F
:100C0000206104F1140007E0012070BD6068B0F5B8
:100C1000827F03D004F11C00002101600026A6623F
:100C200094F8510020B9204684F8506000F03CF858
:100C3000022084F8510094E80F0001F482710568E5
:100C400002F4044225F040050560114403F40062FB
:100C50002369114403F002026369114403F00102A5
:100C6000A369E569114403F40072114405F03802E8
:100C7000256A114405F08002A56A114305F400526B
:100C800011430160626A042101EA134102F010027B
:100C900011444160C16921F40061C16101206665B0
:100CA00084F85100304670BD80B586B0016843F2CB
:100CB0000000C4F20100814202D006B080BD00BF36
:100CC000002143F630020191C4F20202536900F59B
:100CD000504043F480535361536903F480530193AC
:100CE000019B0191136843F001031360126802F045
:100CF00001020192019AE02201920222CDE9022131
:100D0000032104910521059101A9FFF711FB06B00C
:100D100080BD00002DE9F04383B0044690F85000F8
:100D2000012803D1022003B0BDE8F0834FF0010990
:100D30001D4616460F4684F85090FFF7E1FB94F8E5
:100D40005110012944D18046002F4FF0010018BFF7
:100D5000002E00F0D6800320002184F85100616548
:100D60002763A686E686A163A187E187A068216440
:100D7000B0F5004F2068616407D1016821F040019F
:100D80000160016841F4804101600168490603D4B3
:100D9000016841F0400101606168731EE268B1FAC8
:100DA00081F1B3FA83F349095B09B2F5006F41EAB7
:100DB00003013DD131B137F8021BC1602763E08EDA
:100DC0000138E086E08E00286CD0681C0DD11EE052
:100DD000022096E0216B31F8022BC2602163E08E85
:100DE0000138E086E08E00285CD0206881688907A1
:100DF000F0D4FFF785FBA0EB0800A842F2D3032054
:100E00007FE000BFFFF77CFBE08E00284AD020681F
:100E100081688907F6D5216B31F8022BC260216306
:100E2000E08E0138E086E08E0028F0D13AE000BF85
:100E300039B139780173206B01302063E08E0138BD
:100E4000E086E08E70B3681C0BD11BE0216B097843
:100E50000173206B01302063E08E0138E086E08E64
:100E600000B3206881688907F0D4FFF749FBA0EB45
:100E70000800A842F3D3032043E000BFFFF740FB84
:100E8000E08E78B1206881688907F7D5216B0978F1
:100E90000173206B01302063E08E0138E086E08E24
:100EA0000028EFD140F20C00C2F20000006849F6C1
:100EB0008171C1F25E61A0FB0101480D4FF47A71AE
:100EC000484302906068B0F5827F23D1204680219C
:100ED0002A46434600F07EFA28B1606D40F02000BB
:100EE000606520206065A06838B900200190206806
:100EF000C1680191806801900198606D002818BF59
:100F00000120002184F8519084F8501003B0BDE80E
:100F1000F08300BF02980028E5D0029801380290C3
:100F2000206880680006DED502980028DBD0029891
:100F300001380290206880680006D4D50298002805
:100F4000D1D0029801380290206880680006CAD586
:100F500002980028C7D00298013802902068806863
:100F60000006D7D4BFE70000411E0020B0EB116F90
:100F70001CBF012070474EF21002CEF200025160F9
:100F80004EF62351CEF20001F0230B700721906042
:100F900011607047002804BF0120704710B5044657
:100FA00090F83D0028B9002084F83C00204600F06D
:100FB00021F8242084F83D002068C16821F4005104
:100FC000C160204600F000FB2068016921F49041D7
:100FD0000161416921F02A014161C16841F4005178
:100FE000C16000202021206484F83D1084F83E1068
:100FF00010BD000080B586B0016844F60000C4F260
:101000000000814202D006B080BD00BF002143F63F
:1010100030020191C4F20202136900F5E23043F498
:1010200080231361136903F480230193019B0191D1
:10103000136843F008031360126802F0080201927B
:10104000019A4FF4407201920222CDE9022103215C
:1010500004910721059101A9FFF76AF906B080BD47
:10106000FEE7000070B584B00F2041F200448DF817
:1010700007000020C4F202048DF8060020464FF459
:1010800080510022FFF736FA40F23015C2F2000517
:101090000DF107012846012264230126FFF73AFEDD
:1010A0000DF10601284601226423FFF733FE204696
:1010B0004FF480510122FFF71DFA0C208DF8090032
:1010C00020464FF4805100228DF80860FFF712FA95
:1010D0000DF10901284601226423FFF71BFE02A936
:1010E000284601226423FFF715FE20464FF4805165
:1010F0000122FFF7FFF90B208DF80B0007208DF878
:101100000A0020464FF480510022FFF7F3F90DF159
:101110000B01284601226423FFF7FCFD0DF10A01B3
:10112000284601226423FFF7F5FD20464FF4805145
:101130000122FFF7DFF90A208DF80D0020464FF459
:10114000805100228DF80C60FFF7D4F90DF10D01EC
:10115000284601226423FFF7DDFD03A9284601226A
:101160006423FFF7D7FD20464FF480510122FFF79B
:10117000C1F909208DF80F00FF208DF80E002046E0
:101180004FF480510022FFF7B5F90DF10F01284609
:1011900001226423FFF7BEFD0DF10E012846012256
:1011A0006423FFF7B7FD20464FF480510122FFF77B
:1011B000A1F904B070BD000080B541F2E54043F6EE
:1011C0007C52C0F60000C0F60002002100F05CFB7B
:1011D00040F22C11C2F20001086080BD2DE9F047F9
:1011E00086B0002743F63000CDE904770097C4F2BB
:1011F0000200016840F6000A41F010010160016838
:10120000C4F2020A01F010010091009900970168F0
:101210000AF5406541F0800101600168002201F09B
:10122000800100910099009701684FF4805841F0C7
:1012300001010160016801F001010091009900972E
:10124000016841F020010160016801F02001009176
:1012500000990097016841F008010160016801F000
:101260000801009100990097016841F004010160B4
:1012700000684FF4805100F0040000900098284668
:10128000FFF738F950464FF4407100224FF440798F
:10129000FFF730F9782001AECDE901070AF50060CB
:1012A00031460397FFF744F8012428463146CDF82C
:1012B0000480CDE902470497FFF73AF850463146DB
:1012C000CDE90194CDE90377FFF732F806B0BDE828
:1012D000F087000010B540F2301043F20001C2F276
:1012E0000000C4F201014FF4827200234FF4006C3D
:1012F0004FF4007E182480E80E100A21C0E9043360
:10130000C0E906E4C0E90833C0E90A31FFF772FC1E
:10131000002808BF10BDBDE81040FFF703B800006B
:1013200080B540F2881044F60001C2F20000C4F219
:10133000000100234FF00C0C4FF4E13280E80E0066
:10134000C0E90333C0E905C3C361FFF723FE0028EA
:1013500008BF80BDBDE88040FEF7E4BFFEE70000A7
:10136000FEE7000000000000000000000000000098
:10137000EFF30980BFF36F8F154B1A681EF0100F43
:1013800008BF20ED108A20E9F04F10602DE9090018
:101390004FF0500080F31188BFF34F8FBFF36F8F72
:1013A00001F07CFC4FF0000080F31188BDE80900DB
:1013B00019680868B0E8F04F1EF0100F08BFB0ECD5
:1013C000108A80F30988BFF36F8F704700BF00BF9A
:1013D000240000202DE9F04182B01E4690460D46C3
:1013E0000446FFF78DF8301A00EB0807FFF788F87E
:1013F00040F20C01C2F200010968C1F3CB3179431C
:10140000019121688A682A40AA4227D1064618F12C
:1014100001001FD0FFF774F8801BB84222D2019858
:1014200001990028A1F1010101912168896808BF93
:10143000074601EA0500A842ECD00FE08868284082
:10144000A8420BD188682840A84207D18868284064
:10145000A84203D188682840A842EFD0002002B0FB
:10146000BDE8F081D4E900014268B1F5827F22F045
:10147000E00242600AD1A168B1F5004F02D0B1F597
:10148000806F03D1016821F040010160A16AB1F5CC
:10149000005F07D1016821F400510160016841F447
:1014A00000510160012084F85100002084F85000B0
:1014B000032002B0BDE8F081000000000000000041
:1014C000074B19680868B0E8F04F80F30988BFF34C
:1014D0006F8F4FF0000080F31188704700BF00BF8E
:1014E00024000020012000F08DF9FBE780B5FFF714
:1014F0000DF802F065F8012808BF80BDBDE8804006
:1015000001F0ECBCB0B592B0002443F64000CDE948
:101510000A44CDE908440594CDE90344CDE90144EA
:101520000094C4F202000168022541F0805101607C
:10153000006800F080500090009847F2000000948E
:10154000C4F20000016841F440410160006800F409
:10155000404000900098012006904FF4A020079092
:101560004FF480000D9004200E90A820CDE90F05C7
:101570000720119006A80C95FFF782F920B1EFF330
:10158000108072B6FEE700BF0F20CDE901054FF4D1
:10159000A05004904FF48050059001A805210394B9
:1015A000FFF760F820B1EFF3108072B6FEE700BFDE
:1015B00012B0B0BD4EF68850CEF20000016841F482
:1015C000700101607047000010B504460068D4E95E
:1015D00002C22369016921F440511143016162692A
:1015E00043EA0C01E3691143C268194349F20C63F1
:1015F0009A431143C1604169A26921F4407141F2EB
:101600000043114340F48062C4F201039A424161F5
:1016100002D1FFF7EBF801E0FFF7D4F8E169636866
:101620001922B1F5004FA0FB020123D15A00DB0FB4
:10163000FEF7D8FD48F21F51C5F2EB11A0FB0123C4
:101640005A094FF69C73C0F6FF7303F1805302FBF7
:101650000300322303EBC000A0FB01014FF4F8703C
:1016600000EA111000EB0210C1F342110844216896
:10167000886010BD9A009B0FFEF7B4FD48F21F5121
:10168000C5F2EB11A0FB01235A094FF69C73C0F67B
:10169000FF7302FB0300322303EB0010A0FB0101E8
:1016A000F02000EA511000EB0210C1F3431108448E
:1016B0002168886010BD0000FEE70000B0B582B070
:1016C00041F20044C4F202048DF807008DF80610C0
:1016D00020464FF480510022FEF70CFF40F23015F7
:1016E000C2F200050DF10701284601226423FFF72D
:1016F00011FB0DF10601284601226423FFF70AFBC6
:1017000020464FF480510122FEF7F4FE02B0B0BD36
:1017100044F60001C4F200010A68520609D40A68BE
:1017200052065CBF0A685FEA426202D40A68520647
:10173000F2D5C2B24A60704782B0FEF7F5FEFFF7FD
:10174000E1FEFFF74BFDFFF7C5FDFFF7E9FDFFF7F2
:1017500089FC1DA002F0F4FA0320012100220124DB
:1017600001F0D4FB40F21805C2F20005294641F809
:10177000040B42F211400191C0F6000016A1802234
:101780000023009401F0B0FE42F215500835C0F677
:10179000000014A1802200230094019501F0A4FE12
:1017A00013A002F0CDFA43F6A050C0F6000002F0FC
:1017B000C7FA01F0F3F900F035F8FFF7FDFC00F08F
:1017C00045F800BFFEE700BF696E6974207375635A
:1017D00063657373200D0000377365676D656E7404
:1017E0000000000062746E5F7363616E00000000B1
:1017F0007374617274207363686564756C657220BC
:101800000D000000EFF3058100291CBF6FF00500FB
:101810007047002804BF0020704780B501F0F4F83D
:10182000002080BDEFF3058000281CBF6FF005008D
:10183000704740F22810C2F200000168002911BF71
:101840004FF0FF30012101600020704710B5EFF329
:10185000058000281CBF6FF0050010BD40F2281065
:10186000C2F20000016801291CBF4FF0FF3010BD1B
:101870004EF61F51CEF2000100240C7002210160CF
:1018800001F08CF9204610BD2DE9F04184B08E4660
:1018900000240394EFF3058150B149B94FF00004DF
:1018A00052B19369002B08BF1823382B16D9002496
:1018B000204604B0BDE8F08180251823002103AF45
:1018C0000093AAB27346019701F00EFE0399012816
:1018D00008BF0C46204604B0BDE8F0811179C90765
:1018E00024D15769D2E902864FEA970C1168002F7C
:1018F000654608BF8025B8F1000F13D05C2E15D3C4
:1019000012690024002A18BF002FD1D0CDE900327F
:1019100062467346CDF8088001F016FE04B0BDE8BB
:10192000F08100BF16B91269002AC8D000242046F1
:1019300004B0BDE8F08100002DE9F041044600F05C
:1019400021FF40F22406C2F20006F06840F2BC25F6
:101950000130F0603068C2F2000558B130690028EB
:1019600040F007813068E16AC06A884298BF3460FD
:10197000FFE000BF3460F068012840F0FA8028469C
:1019800000F0A6FE05F1140000F0A2FE05F128000B
:1019900000F09EFE05F13C0000F09AFE05F15000BB
:1019A00000F096FE05F1640000F092FE05F178006B
:1019B00000F08EFE05F18C0000F08AFE05F1A0001B
:1019C00000F086FE05F1B40000F082FE05F1C800CB
:1019D00000F07EFE05F1DC0000F07AFE05F1F0007B
:1019E00000F076FE05F5827000F072FE05F58C7051
:1019F00000F06EFE05F5967000F06AFE05F5A07029
:101A000000F066FE05F5AA7000F062FE05F5B47000
:101A100000F05EFE05F5BE7000F05AFE05F5C870D8
:101A200000F056FE05F5D27000F052FE05F5DC70B0
:101A300000F04EFE05F5E67000F04AFE05F5F07088
:101A400000F046FE05F5FA7000F042FE05F5027062
:101A500000F03EFE05F5077000F03AFE05F50C704B
:101A600000F036FE05F5117000F032FE05F5167037
:101A700000F02EFE05F51B7000F02AFE05F5207023
:101A800000F026FE05F5257000F022FE05F52A700F
:101A900000F01EFE05F52F7000F01AFE05F53470FB
:101AA00000F016FE05F5397000F012FE05F53E70E7
:101AB00000F00EFE05F5437000F00AFE05F54870D3
:101AC00000F006FE05F54D7000F002FE05F55270BF
:101AD00000F0FEFD05F5577000F0FAFD05F55C70AD
:101AE00000F0F6FD05F5617000F0F2FD05F5667099
:101AF00000F0EEFD05F56B7000F0EAFD05F5707085
:101B000000F0E6FD05F5757000F0E2FD05F57A7070
:101B100000F0DEFD05F57F7000F0DAFD05F582606E
:101B200000F0D6FD05F2244000F0D2FD05F58760F7
:101B300000F0CEFD05F24C4000F0CAFD40F2001866
:101B4000C2F20008404600F0C3FD08F11407384611
:101B500000F0BEFD06F1640000F0BAFD06F13C00A5
:101B600000F0B6FD06F1500000F0B2FDC6F81C8092
:101B700037627068716A421CE06A7260884262640F
:101B800088BF706200EB800005EB8000211D00F033
:101B9000E1FD00F01BFE306988B13068E16AC06A7F
:101BA000884228BFBDE8F0814EF60450CEF2000016
:101BB0004FF080510160BFF34F8FBFF36F8FBDE8CF
:101BC000F081000040F2240540F2BC264EF6045895
:101BD000C2F20005C2F20006CEF200084FF08057B4
:101BE00003E000BF204600F009FEA868D0B100F075
:101BF000C9FDA86CC468201D00F03CFDE8680138F0
:101C0000E860A8680138A86000F0E0FD94F8590089
:101C10000228EAD00128E5D070B9206B00F0EEFD73
:101C2000E0E700BF30680228DFD3C8F80070BFF3D8
:101C30004F8FBFF36F8FD8E74FF0500080F31188BC
:101C4000BFF36F8FBFF34F8FFEE700002DE9F04722
:101C50000A9C8246206B16460F46DDE90859910022
:101C6000A5229846FEF701FB206B002F00EB8600B3
:101C7000A0F1040020F0070656D0387884F834002C
:101C8000387800284BD0787884F8350078780028A8
:101C900045D0B87884F83600B87800283FD0F87876
:101CA00084F83700F878D0B3387984F83800387978
:101CB000A8B3787984F83900787980B3B87984F852
:101CC0003A00B87958B3F87984F83B00F87930B322
:101CD000387A84F83C00387A08B3787A84F83D0082
:101CE000787AE0B1B87A84F83E00B87AB8B1F87A78
:101CF00084F83F00F87A90B1387B84F84000387B54
:101D000068B1787B84F84100787B40B1B87B84F877
:101D10004200B87B00281CBFF87B84F843000020F9
:101D200084F8430003E000BF002084F8340000275B
:101D3000201D372D28BF3725E562C4E9135700F071
:101D4000D3FC04F1180000F0CFFCC5F13800A0610D
:101D500030465146424624616462676584F8587093
:101D600000F042FBB9F1000F206018BFC9F8004035
:101D7000BDE8F08708480068006880F308884FF0E5
:101D8000000080F3148862B661B6BFF34F8FBFF3D3
:101D90006F8F00DF00BF000008ED00E081B0002081
:101DA000009040F21000C2F2000000684FF05001B5
:101DB00081F31188BFF36F8FBFF34F8F013007D0CE
:101DC000FEE700BF009830B9009820B9009810B91C
:101DD00000980028F6D001B07047000088B040F2AB
:101DE0009C0AC2F2000A0DF11009EB46DAF808006D
:101DF00005681DB1C068046801E000BF002400F060
:101E000045FF01F0EDFBDAF810100646884220D3BA
:101E1000002DCAF8106051D0A6424FD301F0E8FC63
:101E2000DAF80800C068C7683D1D284600F022FCAB
:101E300097F82800410745D400F0FE0087F82800F5
:101E400084E000BF6860DAF8080039462D6100F0D0
:101E50004FFCDAF80800016831B3C068C56804684F
:101E60002F1D384600F006FC296A2846884795F859
:101E700028004007EDD5A8692044A042E2D8DAF84E
:101E80000000002800F04881002004A931C101F0C1
:101E900097FBDAF8000049460022002301F0EAF837
:101EA0000028D6D138E100BFDAF80C10CAF810606B
:101EB000CAE9021001F09CFC1AE100BF65B10022E2
:101EC00010E000BFB8693F610119B14279601FD9C4
:101ED0000AF1080021E000BFDAF80C000068B0FA4F
:101EE00080F04209DAF80000A11B00F063FD01F068
:101EF0007FFC002840F0FC804EF60450CEF200003B
:101F00004FF080510160BFF34F8FBFF36F8FEFE051
:101F1000311B814206D20AF10C000068294600F00C
:101F2000E7FB13E0DAF80000002800F0138100203E
:101F300004A991C101F044FBDAF8000049460022EF
:101F4000002301F097F8002800F00481396A384630
:101F50008847CDE00098B0F1FF3F07DCDDE90120C4
:101F6000039990470098002800F1C280029E706992
:101F700010B1301D00F07EFB01F032FBDAF81010DA
:101F8000074688420DD30098CAF8107009283FD937
:101F9000AEE000BF6860DAF8080021462D6100F06D
:101FA000A7FBDAF80800016841B3C068C568D0F83B
:101FB00000802C1D204600F05DFB296A28468847DA
:101FC00095F828004007ECD5A86940444045E1D881
:101FD000DAF80000002800F095800020CDE9040820
:101FE000069501F0EDFADAF80000494600220023D8
:101FF00001F040F80028D4D184E000BFDAF80C10DA
:10200000CAE902100098CAF81070092800F270801E
:10201000DFE800F00606064448620606444800BFB2
:1020200096F82800019A40F00101B06986F828105E
:102030008318314641F8043FBB42366106D99742C6
:102040000AF1080007D293420AD204E0BA1A824287
:1020500006D20AF10C00006800F04AFB48E000BF1D
:10206000316A3046884796F82800400740D5DAF8AC
:10207000000000285AD00198B16906960844002152
:10208000CDE9041001F09CFADAF80000494600227C
:10209000002300F0EFFF58BB48E000BF96F828008F
:1020A00022E000BF96F8280040F00101019886F870
:1020B00028100028B06143D0384431460AF10C02A0
:1020C00041F8040F3661B84288BF0AF1080210686F
:1020D00000F00EFB0CE000BF96F82800810703D447
:1020E000304600F08BFB03E000F0FE0086F828008D
:1020F000DAF800005946002201F0D2F800287FF4F7
:1021000029AF73E64FF0500080F31188BFF36F8F53
:10211000BFF34F8FFEE700BF4FF0500080F31188F0
:10212000BFF36F8FBFF34F8FFEE700BF4FF050003C
:1021300080F31188BFF36F8FBFF34F8FFEE700BFAF
:102140004FF0500080F31188BFF36F8FBFF34F8FB4
:10215000FEE700BF4FF0500080F31188BFF36F8F90
:10216000BFF34F8FFEE70000F0B581B0044600F0EA
:1021700009FB94F94560012E0FDB04F1240500BF33
:10218000286850B1284601F0F9FA002818BF00F07D
:1021900085FCF0B2013E0128F2D8FF2684F84560A4
:1021A00000F014FB00F0EEFA94F94470012F0EDBFE
:1021B00004F11005286850B1284601F0DFFA002824
:1021C00018BF00F06BFCF8B2013F0128F2D884F888
:1021D000446001B0BDE8F04000F0F8BA70B50446C4
:1021E00000F054FD40F2D80CC2F2000CDCF8040000
:1021F00050B19CF80000002818BF4FF000404FF08D
:10220000000574BB8DE000BF40F21C70C2F20000FC
:10221000C21D22F0070210F00701A0EB020318BF55
:10222000104600224FF47055CCE90602002918BF71
:1022300003F57055411921F00701A1F10803CCF80D
:10224000043041E90222191AC0E9003101208CF85A
:1022500000004FF00040CCE90211002C4FF00005C7
:102260005FD020405DD124F0070000F1100260072C
:1022700008BF04F10802002A4FF0000551D0DCF835
:10228000080082424DD8604650F818EFDEF804503E
:1022900095422CD2DEF80010C1B174464D689542CB
:1022A00018D20B68B3B15D68954217D21868A8B10F
:1022B0004568954216D20468A4B16568954215D266
:1022C0002168A6460029E9D111E000BF0CF11800F1
:1022D0000DE000BF8E46204609E000BF9E4608463E
:1022E00005E000BF8646184601E000BFA646DCF8C0
:1022F00004108E4514D00168DEF80040AB1A112B93
:1023000004604DD30EEB0205680719D04FF0500062
:1023100080F31188BFF36F8FBFF34F8FFEE700BFCD
:10232000002501F065FA68075BD04FF0500080F39C
:102330001188BFF36F8FBFF34F8F00BFFEE700BF61
:102340000CF118006B60CEF8042000BF0368AB42AC
:102350000AD21868A8420BD20368AB4204D21868AC
:102360001A46A842F2D304E00246184601E000BF34
:102370001A4653686C68D618AE4202D11C44154602
:1023800054602B19834207D1DCF80430984203D003
:10239000D0E9000323446B60AA42286018BF15608F
:1023A00001F10805DEF80400DCE90212091A914285
:1023B000CCF8081038BFCCF80C109CF8001000299D
:1023C00018BF40F00040CEF80400DCF810000021F7
:1023D0000130CEF80010CCF8100001F009FA6807BF
:1023E000A3D1284670BD0000034641F69D50C0F6BB
:1023F00000004FF0807C21F0010103E903106FF031
:10240000020043F8240CA3F1440043F8202C704749
:1024100084B040F2180A4CF6CD4B49F699180020CA
:10242000C2F2000A0DF1060539A60DF10707CCF638
:10243000CC4BC1F699188DF8060008E040F6000074
:10244000C4F202004FF480710022FEF753F801F04D
:10245000C7F8044644F6D350C1F26200A4FB000161
:10246000DAF800004FEA91192946642200F018FFBB
:102470009DF8060002280BD046F24E130128C0F248
:10248000BC0306D142F66B03C0F2AB0301E000BF10
:102490004B4638460921324601F07CFA9DF8071078
:1024A0000820FFF70BF99DF808100720FFF706F941
:1024B0009DF809100620FFF701F99DF80A10052084
:1024C000FFF7FCF89DF80B100420FFF7F7F89DF8D4
:1024D0000C100320FFF7F2F89DF80D100220FFF713
:1024E000EDF89DF80E100120FFF7E8F809FB0BF05E
:1024F0004FEA70004045A1D8B4F57A7F9ED340F6EC
:102500000000C4F202004FF48071FDF7EBFF9EE77C
:102510002538640082B041F2000440F2180843F606
:10252000A055C4F202044FF0000BC2F200080DF1F6
:1025300007064FF001090FF2D00AC0F60005002788
:102540008DF807B010E000BF03208DF807003EA013
:1025500001F0F6FBD8F8000031466422002300F0B9
:1025600089FD01F03DF8074620460821FDF7B4FF3C
:1025700080B101F035F8C01B6428F5D328468DF8EA
:1025800007B001F0DDFBD8F80000314664220023DB
:1025900000F070FD20461021FDF79EFF80B101F094
:1025A0001FF8C01B6428DFD350468DF8079001F058
:1025B000C7FBD8F8000031466422002300F05AFD22
:1025C00020462021FDF788FF88B901F009F8C01BDB
:1025D0006428C9D302208DF8070012A001F0B0FBD7
:1025E000D8F8000031466422002300F043FD204665
:1025F0004021FDF771FF0028B3D100F0F1FFC01BAF
:102600006428B1D3A0E700BF646973706C6179205E
:102610006D6F64653A73747564656E7420696420C7
:102620000D000000646973706C6179206D6F6465E2
:102630003A73797374656D20737461727475702068
:1026400074696D6572200D00646973706C61792026
:102650006D6F64653A72657365727665642C20628D
:1026600061636B20746F2064656661756C74200D06
:1026700000000000D0E9013201699A60D1F804C07D
:1026800082688445536008BF4A600022026108687E
:10269000013808600868704744F22053C2F2000312
:1026A000036044F22030C2F2000008608020106015
:1026B0007047000044F67C13C2F20003036044F24A
:1026C0007C50C2F2000008604FF4807010607047C8
:1026D0004FF0FF31024642F8081F00214260C0E976
:1026E0000322016070470000002101617047000073
:1026F00010B5D1F800E01EF1010213D000F108047A
:1027000062681368734511D853681C68744511D802
:102710005A68146874450FD854682368A4467345F2
:10272000EED90BE00269D2F804C007E094462246D5
:1027300004E000BF9C4601E094461A46C1F804C07C
:10274000CCF808108A6051600861016801310160AD
:1027500010BD0000D0F800C0436808619A684B6063
:102760008A609A68996051600CF1010101607047BC
:10277000DFF80C00016841F470010160704700004F
:1027800088ED00E04FF0500080F31188BFF36F8FA9
:10279000BFF34F8F40F21000C2F2000001684A1CE4
:1027A000026009B1704700BF4EF60450CEF200003F
:1027B0000068000608BF70474FF0500080F3118892
:1027C000BFF36F8FBFF34F8FFEE7000040F21000A2
:1027D000C2F20000016839B10139016018BF7047C9
:1027E000002080F3118870474FF0500080F311886B
:1027F000BFF36F8FBFF34F8FFEE7000070B5002867
:1028000008BF70BD40F2D805C2F200050446287822
:1028100054F8041C002818BF4FF0004008420DD0A7
:10282000A4F1080632689AB14FF0500080F3118885
:10283000BFF36F8FBFF34F8FFEE700BF4FF0500025
:1028400080F31188BFF36F8FBFF34F8FFEE700BF98
:1028500021EA000044F8040C00F018FA54F8041CB3
:10286000A8680844A86005F1180000BF0368B342D7
:102870000AD21868B04225D20368B34204D218685D
:102880001A46B042F2D301E0024618465368D41803
:10289000B44202D11944164651607318834206D1DE
:1028A0006B68984203D0D0E9000319447160B242CA
:1028B000306018BF1660686901306861BDE870401B
:1028C00000F096BF1A465368D418B442E5D1E1E748
:1028D0004EF21000CEF2000000210160816040F253
:1028E0000C01C2F20001096844F6D352C1F262023F
:1028F000A1FB02124FF0FF3101EB92114160072161
:102900000160704744F6D81CC2F2000CDCF80020CD
:1029100022B3634653F8082F42B3634653F8102F8F
:1029200052B3634653F8182F62B3634653F8202F0F
:1029300072B3634653F8282F82B3634653F8302F9F
:1029400092B3634653F8382F002A18BF7047072206
:1029500019600CEBC2014860704700BF002263465B
:1029600019600CEBC2014860704700BF012219607A
:102970000CEBC20148607047022219600CEBC201E7
:1029800048607047032219600CEBC2014860704731
:10299000042219600CEBC2014860704705221960DF
:1029A0000CEBC20148607047062219600CEBC201B3
:1029B0004860704770B515460E460446FFF7E2FEC4
:1029C00094F84400FF2804BF002084F8440094F8E1
:1029D0004500FF2804BF002084F84500FFF7F6FEFD
:1029E000A06B28B12046BDE87040FFF7BDBB00BF1B
:1029F00004F1240031462A4600F092F82046BDE852
:102A00007040FFF7B1BB000070B588B340F22405F9
:102A1000C2F200050446686950B14FF0500080F3DF
:102A20001188BFF36F8FBFF34F8F00BFFEE700BF6A
:102A3000686901306861AE6928680430FFF71AFEE2
:102A40002868A419446005D3286A29680431FFF76F
:102A50004FFE08E0E86929680431FFF749FEE86A9B
:102A6000844238BFEC6200F0C3FE002818BF70BD7E
:102A70004EF60450CEF200004FF080510160BFF3DB
:102A80004F8FBFF36F8F70BD40F22401C2F200017F
:102A90008A6B0260896941607047000040F224003F
:102AA000C2F20000012101637047000070B5D8B187
:102AB00040F22404C2F200040D4621681831FFF7E9
:102AC00017FEA66920680430FFF7D4FD681C15D0F6
:102AD0002068AD19456019D3206A21680431BDE82A
:102AE0007040FFF705BE00BF4FF0500080F3118823
:102AF000BFF36F8FBFF34F8FFEE700BF54F8500B4B
:102B0000011D2046BDE87040FFF724BEE069216842
:102B10000431FFF7EDFDE06A854238BFE56270BD24
:102B2000F0B581B0C0B140F22404C2F200040D46F9
:102B3000216816461831FFF70DFEA769206804309A
:102B4000FFF798FD96B154F8500B011D204601B0D7
:102B5000BDE8F040FFF7FEBD4FF0500080F3118854
:102B6000BFF36F8FBFF34F8FFEE700BF2068ED19F3
:102B7000456007D3206A2168043101B0BDE8F04008
:102B8000FFF7B6BDE06921680431FFF7B1FDE06AE7
:102B9000854238BFE56201B0F0BD000010B588B0D5
:102BA0000020CDE9050006A805A904AAFFF774FDD9
:102BB000059800283ED0069C002C45D05C21049A44
:102BC000079107995C2949D107992063022084F86D
:102BD000590007A80021CDE9001041F6C530C0F624
:102BE000000028A100230294FFF730F82046FEF7EA
:102BF000A3FE079840F22404C2F20004A062B0B120
:102C000000F06EFE411C33D0012810D14FF050006F
:102C100080F31188BFF36F8FBFF34F8F4FF0FF30FA
:102C2000E062012020610020A06100F095F808B06A
:102C300010BD00BF4FF0500080F31188BFF36F8FBD
:102C4000BFF34F8FFEE700BF4FF0500080F31188B5
:102C5000BFF36F8FBFF34F8FFEE700BF4FF0500001
:102C600080F31188BFF36F8FBFF34F8FFEE700BF74
:102C70004FF0500080F31188BFF36F8FBFF34F8F79
:102C8000FEE700BF49444C450000000040F224002C
:102C9000C2F20000416901314161704780B540F2E4
:102CA000240EC2F2000EDEF8141019B10121CEF884
:102CB000301080BD0021CEF83010DEF8241040F234
:102CC000BC2C01EB8103C2F2000C5CF823208AB11A
:102CD00001EB81020CEB820353F8042F5268181D9C
:102CE00082421A6020D0D068CEF80000CEF82410BE
:102CF00080BD00BF0CEB8302A2F12803E1B15A6949
:102D000022BB012918D01A6812BB022914D053F82B
:102D1000142CFAB903290FD053F8282C0439002AAF
:102D2000A3F15003EAD0D3E752681A60D068CEF816
:102D30000000CEF8241080BD4FF0500080F31188C1
:102D4000BFF36F8FBFF34F8FFEE700BF0139BFE7BF
:102D50000239BDE70339BBE7B0B584B04EF2004C91
:102D6000CEF2000C4CF27021C4F20F11DCF80029F5
:102D70004B1C9A420AD14FF0500080F31188BFF3E8
:102D80006F8FBFF34F8F00BFFEE700BFDCF8002955
:102D90008A4209D14FF0500080F31188BFF36F8F42
:102DA000BFF34F8FFEE700BF9CF800100291FF2198
:102DB0008CF800109CF800108DF807109DF8071093
:102DC00001F0500240F2F801C2F200010A7007223D
:102DD0004A609DF90720B2F1FF3F69DC032200BF82
:102DE000D31C4B609DF8070040008DF807009DF94B
:102DF0000700B0F1FF3F23DC931C4B609DF80700F8
:102E000040008DF807009DF90700B0F1FF3F17DC87
:102E1000531C4B609DF8070040008DF807009DF99A
:102E20000700B0F1FF3F0BDC4A609DF80700043A51
:102E300040008DF807009DF907000028D0D4131D2D
:102E4000032B35D14FF44070486002988CF8000095
:102E5000DCF8200940F47000CCF82009DCF82009E7
:102E600040F07040CCF82009FFF732FD40F210042A
:102E7000C2F2000400252560FFF77AFC4EF634709C
:102E8000CEF20000016841F040410160FEF772FFA0
:102E9000FFF704FF039520684FF0500181F311887C
:102EA000BFF36F8FBFF34F8F013011D0FEE700BF2C
:102EB0004FF0500080F31188BFF36F8FBFF34F8F37
:102EC000FEE700BF039830B9039820B9039810B902
:102ED00003980028F6D0002004B0B0BD80B54FF0B4
:102EE000500080F31188BFF36F8FBFF34F8F00F056
:102EF0007DFB30B14EF60450CEF200004FF0805111
:102F00000160002080F3118880BD00002DE9F041B0
:102F1000B0B306464843503014460F46FFF75EF9FB
:102F2000054650B34FF00008284685F84680002F2C
:102F300018BF50302860C5E90F67FFF723FC2868E9
:102F4000D5E90F12C5F8388002FB0103013901FBF6
:102F50000201C5E90103FF20E96085F8440085F816
:102F6000450005F11000FFF7B3FB05F12400FFF762
:102F7000AFFBFFF72BFC85F84C402846BDE8F081FD
:102F80004FF0500080F31188BFF36F8FBFF34F8F66
:102F9000FEE7000070B582B070B11C46B3B1F9B95C
:102FA000F2B14FF0500080F31188BFF36F8FBFF381
:102FB0004F8F00BFFEE700BF4FF0500080F3118835
:102FC000BFF36F8FBFF34F8FFEE700BF4FF050008E
:102FD00080F31188BFF36F8FBFF34F8FFEE700BF01
:102FE00051B14AB94FF0500080F31188BFF36F8F91
:102FF000BFF34F8FFEE700BF50230193019B502B7F
:103000002ED1019B069E012384F84630002908BF7B
:1030100022462260C4E90F01FFF7B4FB2068D4E91F
:103020000F12002502FB0103013901FB0201A56318
:10303000C4E90103FF20E16084F8440084F84500FE
:1030400004F11000FFF744FB04F12400FFF740FBFC
:10305000FFF7BCFB204684F84C6002B070BD00BF97
:103060004FF0500080F31188BFF36F8FBFF34F8F85
:10307000FEE700002DE9F04F83B00292C0B11D467B
:1030800017460E460446E9B1022D03D1E06B012834
:1030900040F0888000F094FA10BB0FB34FF050005E
:1030A00080F31188BFF36F8FBFF34F8FFEE700BF30
:1030B0004FF0500080F31188BFF36F8FBFF34F8F35
:1030C000FEE700BF206C0028DED04FF0500080F3F8
:1030D0001188BFF36F8FBFF34F8F00BFFEE700BFB4
:1030E000FFF750FBA06B022D66D0E16B884263D3E3
:1030F00004F1100801206F460DF108090DE000BF32
:103100002046FFF731F800F073FBFFF73BFBA06BA5
:10311000E16B88424FF000004ED30299002973D032
:10312000C00702D03846FFF7AFFCFFF74FFBFFF7B1
:10313000ADFDFFF727FB94F84400FF2804BF0020F3
:1031400084F8440094F84500FF2804BF002084F868
:103150004500FFF73BFB3846494600F073F900286D
:1031600058D1FFF70FFBD4F838A0D4F83CB0FFF7E4
:103170002DFBDA45C4D102994046FFF797FC204663
:10318000FEF7F2FF00F034FB0028BED14EF60450EB
:10319000CEF200004FF080510160BFF34F8FBFF3BC
:1031A0006F8FB2E74FF0500080F31188BFF36F8F3D
:1031B000BFF34F8FFEE700BFA76B226CD2B19DB368
:1031C000E0683146FDF73FF8E168206C2268091A93
:1031D0009142E16003D2A16840420844E060A81E29
:1031E000B0FA80F040093946002F18BF012108408D
:1031F0003F1A26E02068002520BBA06800F078FA7E
:10320000A56005461EE000BFFFF7E0FA002003B00E
:10321000BDE8F08F2046FEF7A7FF00F0E9FA002096
:1032200003B0BDE8F08F00BF60683146FDF70BF8D2
:10323000216CD4E9010208449042606001D3206807
:1032400060600025781CA06354F8240FA0B12046CC
:1032500000F094FA50B14EF60450CEF200004FF058
:1032600080510160BFF34F8FBFF36F8FFFF7AEFA4E
:10327000012003B0BDE8F08F002DF7D04EF60450CA
:10328000CEF200004FF080510160BFF34F8FBFF3CB
:103290006F8FFFF79BFA012003B0BDE8F08F0000AD
:1032A0002DE9F04F83B0029290B116460D460446C8
:1032B000002947D000F084F9A0B99EB14FF050002A
:1032C00080F31188BFF36F8FBFF34F8FFEE700BF0E
:1032D0004FF0500080F31188BFF36F8FBFF34F8F13
:1032E000FEE700BFFFF74EFAD4F838A0BAF1000F9E
:1032F00036D0226C52B1D4E902308118E160994293
:1033000024BF2168E1602846FCF79DFFAAF1010077
:10331000A06354F8100F70B1204600F02FFA50B19E
:103320004EF60450CEF200004FF080510160BFF322
:103330004F8FBFF36F8F0124FFF748FA204603B089
:10334000BDE8F08F206C0028B4D04FF0500080F31F
:103350001188BFF36F8FBFF34F8F00BFFEE700BF31
:1033600004F1240801206F464FF000090DF1080B0D
:103370002EE000BFFFF72AFAFFF788FCFFF702FAFA
:1033800094F84400FF2808BF84F8449094F845005E
:10339000FF2808BF84F84590FFF718FA38465946C9
:1033A00000F050F8E0B12046FEF7DEFE00F020FA13
:1033B000FFF7E8F9A66BFFF709FA002E3CD0FFF7FC
:1033C000E1F9D4F838A00020BAF1000F7FF491AFF2
:1033D000029949B3C007CDD03846FFF755FBC9E77E
:1033E000FFF7D0F9A66BFFF7F1F92EB12046FEF7F3
:1033F000BBFE00F0FDF9E2E702994046FFF756FBFD
:103400002046FEF7B1FE00F0F3F90028D7D14EF6C2
:103410000450CEF200004FF080510160BFF34F8F97
:10342000BFF36F8FCBE700BF0024FFF7CFF9204633
:1034300003B0BDE8F08F00BF0024204603B0BDE814
:10344000F08F0000B0B5D8B10D4619B30446FFF7B0
:1034500099F940F2240CC2F2000CDCF8182029681B
:103460004B1C21D0D4E9000EDCF83830834221D047
:1034700072451FD30124FFF7A9F92046B0BD00BF54
:103480004FF0500080F31188BFF36F8FBFF34F8F61
:10349000FEE700BF4FF0500080F31188BFF36F8F3D
:1034A000BFF34F8FFEE700BF0024FFF78FF92046E0
:1034B000B0BD00BFA2EB0E0291420DD9881A286060
:1034C000DCF838002060DCF8180060600024FFF7AA
:1034D0007DF92046B0BD00BF002001242860FFF721
:1034E00075F92046B0BD00002DE9F04383B00746D2
:1034F0009000984615468946FEF770FEF8B10646DC
:103500005C20FEF76BFEB8B10446DDE90A1000222C
:10351000266384F85920CDE90010384649462A46EA
:1035200043460294FEF792FB2046FEF705FA01207F
:1035300003B0BDE8F08300BF3046FFF75FF94FF0FE
:10354000FF3003B0BDE8F08370B586B00B9CCCB102
:103550000C9E0EB35C250495049D5C2D26D1049D24
:10356000DDF828C0022586F8595005AD3463CDE951
:1035700000C50296FEF76AFB3046FEF7DDF90598B6
:1035800006B070BD4FF0500080F31188BFF36F8F0D
:10359000BFF34F8FFEE700BF4FF0500080F311885C
:1035A000BFF36F8FBFF34F8FFEE700BF4FF05000A8
:1035B00080F31188BFF36F8FBFF34F8FFEE70000DA
:1035C00040F22400C2F20000016900290FBF01206F
:1035D0004069B0FA80F0400918BF40007047000011
:1035E00040F22400C2F20000806970472DE9F043E8
:1035F00081B040F22406C2F20006706940B1706BDF
:10360000002401307063204601B0BDE8F08300BFA4
:10361000B06910F10109C6F8189020D3F06900686C
:1036200050B14FF0500080F31188BFF36F8FBFF39C
:103630004F8F00BFFEE700BFF069316AF161306271
:10364000B06B0130B063F069006828B1F069C06800
:10365000C068406802E000BF4FF0FF30F062F06ADF
:1036600040F2BC288145C2F2000801D200242EE0BD
:10367000F0690024006813E0F86A716A884288BF24
:10368000706200EB800008EB80002946FFF762F8CB
:10369000F86A3168C96AF269884228BF0124106853
:1036A00090B1F069C068C7683D4655F8040F814580
:1036B0000CD32846FEF7DEFFB86A0028DCD007F1FD
:1036C0001800FEF7D7FFD7E74FF0FF30F062306801
:1036D000C06A00EB800058F82000012888BF012450
:1036E000306B002818BF0124204601B0BDE8F083EC
:1036F00070B588B140F22406C2F200060446306874
:10370000A0420BD04FF0500080F31188BFF36F8FB1
:10371000BFF34F8FFEE700BF002070BD206D18B3D0
:10372000411EE06AE26C216590424FF0000008BF44
:1037300070BDC1B9251D2846FEF79CFFE06CC0F1A5
:103740003801E062A161716A884240F2BC2188BF01
:10375000706200EB8000C2F2000101EB800029469C
:10376000FEF7F8FF012070BD4FF0500080F3118884
:10377000BFF36F8FBFF34F8FFEE7000070B5C068D7
:10378000C5686DB105F118042046FEF773FF40F2DD
:103790002406C2F20006706960B106F164001AE006
:1037A0004FF0500080F31188BFF36F8FBFF34F8F3E
:1037B000FEE700BF2C1D2046FEF75CFFE86A716A39
:1037C000884240F2BC2188BF706200EB8000C2F2E8
:1037D000000101EB80002146FEF7BCFFE86A31687A
:1037E000C96A884292BF00200120306370BD00008A
:1037F0002DE9F04140F22405C2F20005686968B184
:10380000FEF7C0FF686901386861686980B100240B
:10381000FEF7DCFF2046BDE8F08100BF4FF050000E
:1038200080F31188BFF36F8FBFF34F8FFEE700BFA8
:10383000E8680028EBD0686E88B340F2BC26C2F27C
:1038400000064FF0010800BF286FC76807F1180095
:10385000FEF710FF3C1D2046FEF70CFFF86A696A70
:10386000884288BF686200EB800006EB800021463A
:10387000FEF770FFF86A2968C96A884228BFC5F850
:103880003080686E0028DFD1E869006820B1E869FF
:10389000C068C068406801E04FF0FF30E8626C6BC0
:1038A0004CB10126FFF7A2FE002818BF2E63013C91
:1038B000F8D100206863286B0028A8D04EF6045089
:1038C000CEF200004FF080510160BFF34F8F012412
:1038D000BFF36F8FFEF77AFF2046BDE8F08100004E
:1038E00070B586B0FEF74EFF40F29C06C2F20006AD
:1038F000306808BB06F114042046FEF7E9FE06F125
:1039000028052846FEF7E4FE40F2CC1240F26C2374
:10391000C6E902450025C2F20002C2F200030A20F5
:1039200010210095FFF736FB306028B143F6C351F4
:10393000C0F60001FEF7E6FFFEF748FF3068D8B199
:103940000020CDE9040005A804A903AAFEF7B2FEF1
:10395000DDE903200221059DCDE9001041F6DD508F
:10396000C0F6000009A100230295FFF7EDFD70608D
:1039700010B1012006B070BD4FF0500080F31188E7
:10398000BFF36F8FBFF34F8FFEE700BF546D722000
:10399000537663000FB47CB50C0009AD01D0611EF5
:1039A00000E00021CDE90001064B6A46294608984F
:1039B00000F01AF8002C02D0009A002111707CBC93
:1039C0005DF814FB2B3D000802E008C8121F08C177
:1039D000002AFAD170477047002001E001C1121F90
:1039E000002AFBD1704700002DE9FF4F8BB08846BD
:1039F0000546002606E025280BD0DDE90D1290478C
:103A00006D1C761C28780028F5D10FB03046BDE833
:103A1000F08F0024A146A2460122AE4900E00443F3
:103A200015F8013F203B02FA03F00842F7D128784D
:103A30002A2810D06FF02F022878A0F13001092930
:103A400015D809EB890102EB410144F0020400EBB7
:103A500001096D1CF0E758F8041B5FEA010903D562
:103A600044F40054C9F1000944F002046D1C2878A4
:103A70002E2817D115F8010F44F004042A280ED07F
:103A80006FF02F022878A0F1300109290AD80AEB3B
:103A90008A0102EB410100EB010A6D1CF2E758F8C4
:103AA00004AB6D1C28786C280FD006DC4C2817D08E
:103AB00068280DD06A2814D104E0742810D07A2820
:103AC0000FD10DE044F400140AE044F4801401E046
:103AD00044F440146978814202D104F580146D1CCD
:103AE0006D1C2878692865D006DC00288DD06328F5
:103AF00027D0642806D15DE06E2808D073282AD02C
:103B0000752877D0DDE90D129047761CE0E0C4F30C
:103B10000250022809D003280DD0D8F8001004283C
:103B20000DD00E6008F10408D2E0D8F80010F217AA
:103B3000C1E90062F6E7D8F800100E80F2E70E70D7
:103B4000F0E718F8041B8DF8001000208DF8010034
:103B5000EB46012003E058F804BB4FF0FF3061074B
:103B60004FF0000701D40AE07F1C57450DDA874269
:103B7000FADB1BF807100029F6D106E07F1C87420C
:103B8000FCDB1BF807100029F8D1DDE90D23A9EBB8
:103B900007008146214600F0B1F83044C61904E020
:103BA000DDE90D121BF8010B90477F1EF8D221466C
:103BB000484688E058F8040BC4F302514FF00A0B52
:103BC000032900D100B2042900D140B2002802DA52
:103BD00040422D2102E0210505D52B218DF824102E
:103BE000012104E006E0E10710D02021F6E708AF4C
:103BF000089113E058F8040BC4F302514FF00A0B7C
:103C0000032900D180B2042900D1C0B20021EEE71F
:103C10005946FCF73CFB303107F8011D0028F7D16D
:103C2000ADEB070000F1200B600702D524F48034CF
:103C300001E04FF0010ADA4502DDAAEB0B0000E0DB
:103C40000020824600EB0B0108980144A9EB01001B
:103C50000A90E00306D4DDE90D2321460A9800F01E
:103C60004DF806444FF0000908E009A911F80900D1
:103C7000DDE90D12904709F10109761C0899894583
:103C8000F3DBE0030CD5DDE90D2321460A9800F0B3
:103C900035F8064404E0DDE90D1230209047761C2B
:103CA000BAF10001AAF1010AF5DC05E0DDE90D1227
:103CB00017F8010B9047761CBBF10001ABF1010B2B
:103CC000F4DC0A982146DDE90D2300F005F80644EE
:103CD0006D1C97E6092801002DE9F04104460025F6
:103CE0001E461746880404D405E039462020B04714
:103CF0006D1C641EF9D52846BDE8F0812DE9F04120
:103D0000044600251E469046C80301D5302700E032
:103D10002027880404D505E041463846B0476D1C8D
:103D2000641EF9D52846BDE8F0814A68002A06D00D
:103D30000A68531C0B6010704868401E486070474A
:103D400010B5044601E0FDF7E3FC14F8010B04494B
:103D50000028F8D1BDE810400A20FDF7D9BC0000CA
:103D60000000002000000000000000000102030429
:103D7000060708090000000001020304B73D00081F
:103D80000000000000000000000000000000000033
:103D90000002000018000000000000000000000009
:103DA000646973706C6179206D6F64653A646566EF
:103DB00061756C74200D0064656661756C74546186
:103DC000736B00546D725100E83D00080000002044
:103DD00018000000C8390008003E00081800002044
:103DE000004E0000D839000800000000010000006B
:103DF000100000000024F400AAAAAAAA00000000F3
:04000005080001AD41
:00000001FF
